Component: ARM Compiler 5.06 update 6 (build 750) Tool: armlink [4d35ed]

==============================================================================

Section Cross References

    startup_stm32f4xx.o(RESET) refers to startup_stm32f4xx.o(STACK) for __initial_sp
    startup_stm32f4xx.o(RESET) refers to startup_stm32f4xx.o(.text) for Reset_Handler
    startup_stm32f4xx.o(RESET) refers to rtc.o(.text) for RTC_WKUP_IRQHandler
    startup_stm32f4xx.o(RESET) refers to sdio.o(.text) for SDIO_IRQHandler
    startup_stm32f4xx.o(RESET) refers to usbd_usr.o(.text) for OTG_FS_IRQHandler
    startup_stm32f4xx.o(.text) refers to system_stm32f4xx.o(.text) for SystemInit
    startup_stm32f4xx.o(.text) refers to entry.o(.ARM.Collect$$$$00000000) for __main
    app.o(.text) refers to rtc.o(.text) for rtc_config
    app.o(.text) refers to led.o(.text) for led_config
    app.o(.text) refers to beep.o(.text) for beep_config
    app.o(.text) refers to relay.o(.text) for relay_config
    app.o(.text) refers to usart.o(.text) for usart1_config
    app.o(.text) refers to spi.o(.text) for spi_config
    app.o(.text) refers to w25qxx.o(.text) for w25qxx_config
    app.o(.text) refers to sdio.o(.text) for SD_Init
    app.o(.text) refers to iic.o(.text) for iic_config
    app.o(.text) refers to bsp.o(.text) for delay_ms
    app.o(.text) refers to 24cxx.o(.text) for atc24cxx_write_one_byte
==============================================================================

Removing Unused input sections from the image.

    Removing startup_stm32f4xx.o(HEAP), (512 bytes).
    Removing app.o(.rev16_text), (4 bytes).
    Removing app.o(.revsh_text), (4 bytes).
    Removing app.o(.rrx_text), (6 bytes).
    Removing app.o(.constdata), (48 bytes).
    Removing bsp.o(.rev16_text), (4 bytes).
    Removing bsp.o(.revsh_text), (4 bytes).
    Removing bsp.o(.rrx_text), (6 bytes).
    Removing usart.o(.rev16_text), (4 bytes).
    Removing usart.o(.revsh_text), (4 bytes).
    Removing usart.o(.rrx_text), (6 bytes).
    Removing iic.o(.rev16_text), (4 bytes).
    Removing iic.o(.revsh_text), (4 bytes).
    Removing iic.o(.rrx_text), (6 bytes).
    Removing can.o(.rev16_text), (4 bytes).
    Removing can.o(.revsh_text), (4 bytes).
    Removing can.o(.rrx_text), (6 bytes).
    Removing can.o(.text), (16 bytes).
==============================================================================

Image Symbol Table

    Local Symbols

    Symbol Name                              Value     Ov Type        Size  Object(Section)

    ../clib/microlib/division.c              0x00000000   Number         0  uldiv.o ABSOLUTE
    ../clib/microlib/division.c              0x00000000   Number         0  uidiv.o ABSOLUTE
    ../clib/microlib/init/entry.s            0x00000000   Number         0  entry7a.o ABSOLUTE
    ../clib/microlib/init/entry.s            0x00000000   Number         0  entry.o ABSOLUTE
    ../clib/microlib/init/entry.s            0x00000000   Number         0  entry10a.o ABSOLUTE
    ../clib/microlib/init/entry.s            0x00000000   Number         0  entry8b.o ABSOLUTE
    ../clib/microlib/init/entry.s            0x00000000   Number         0  entry8a.o ABSOLUTE
    ../clib/microlib/init/entry.s            0x00000000   Number         0  entry2.o ABSOLUTE
    ../clib/microlib/init/entry.s            0x00000000   Number         0  entry9b.o ABSOLUTE
    ../clib/microlib/init/entry.s            0x00000000   Number         0  entry7b.o ABSOLUTE
    ../clib/microlib/init/entry.s            0x00000000   Number         0  entry5.o ABSOLUTE
    ../clib/microlib/init/entry.s            0x00000000   Number         0  entry11b.o ABSOLUTE
    ../clib/microlib/init/entry.s            0x00000000   Number         0  entry9a.o ABSOLUTE
    ../clib/microlib/init/entry.s            0x00000000   Number         0  entry11a.o ABSOLUTE
    ../clib/microlib/init/entry.s            0x00000000   Number         0  entry10b.o ABSOLUTE
    ../clib/microlib/longlong.c              0x00000000   Number         0  llsshr.o ABSOLUTE
    ../clib/microlib/longlong.c              0x00000000   Number         0  llushr.o ABSOLUTE
    ../clib/microlib/longlong.c              0x00000000   Number         0  llshl.o ABSOLUTE
    ../clib/microlib/printf/printf.c         0x00000000   Number         0  printfb.o ABSOLUTE
    ../clib/microlib/printf/printf.c         0x00000000   Number         0  printf0.o ABSOLUTE
    ../clib/microlib/printf/printf.c         0x00000000   Number         0  printf1.o ABSOLUTE
    ../clib/microlib/printf/printf.c         0x00000000   Number         0  printf2.o ABSOLUTE
    ../clib/microlib/printf/printf.c         0x00000000   Number         0  printf3.o ABSOLUTE
    ../clib/microlib/printf/printf.c         0x00000000   Number         0  printf4.o ABSOLUTE
    ../clib/microlib/printf/printf.c         0x00000000   Number         0  printf5.o ABSOLUTE
    ../clib/microlib/printf/printf.c         0x00000000   Number         0  printf7.o ABSOLUTE
    ../clib/microlib/printf/printf.c         0x00000000   Number         0  printf8.o ABSOLUTE
    ../clib/microlib/printf/printf.c         0x00000000   Number         0  printf6.o ABSOLUTE
    ../clib/microlib/printf/printf.c         0x00000000   Number         0  printfa.o ABSOLUTE
    ../clib/microlib/printf/stubs.s          0x00000000   Number         0  stubs.o ABSOLUTE
    ../clib/microlib/stdio/streams.c         0x00000000   Number         0  stdout.o ABSOLUTE
    ../clib/microlib/string/memcpy.c         0x00000000   Number         0  memcpya.o ABSOLUTE
    ../clib/microlib/string/memcpy.c         0x00000000   Number         0  memcpyb.o ABSOLUTE
    ../clib/microlib/stubs.s                 0x00000000   Number         0  iusefp.o ABSOLUTE
    ../fplib/microlib/fpadd.c                0x00000000   Number         0  dadd.o ABSOLUTE
    ../fplib/microlib/fpdiv.c                0x00000000   Number         0  ddiv.o ABSOLUTE
    ../fplib/microlib/fpepilogue.c           0x00000000   Number         0  depilogue.o ABSOLUTE
    ../fplib/microlib/fpfix.c                0x00000000   Number         0  dfixul.o ABSOLUTE
    ../fplib/microlib/fpmul.c                0x00000000   Number         0  dmul.o ABSOLUTE
    ..\..\library\cmsis\cm4\device_support\st\stm32f4xx\startup_stm32f4xx.s 0x00000000   Number         0  startup_stm32f4xx.o ABSOLUTE
    ..\..\library\cmsis\cm4\device_support\st\stm32f4xx\system_stm32f4xx.c 0x00000000   Number         0  system_stm32f4xx.o ABSOLUTE
    ..\..\library\fatfs\src\diskio.c         0x00000000   Number         0  diskio.o ABSOLUTE
    ..\..\library\fatfs\src\ff.c             0x00000000   Number         0  ff.o ABSOLUTE
    ..\..\library\fatfs\src\option\cc936.c   0x00000000   Number         0  cc936.o ABSOLUTE
    ..\..\library\usb\STM32_USB_Device_Library\Class\msc\src\usbd_msc_bot.c 0x00000000   Number         0  usbd_msc_bot.o ABSOLUTE
    ..\..\library\usb\STM32_USB_Device_Library\Class\msc\src\usbd_msc_core.c 0x00000000   Number         0  usbd_msc_core.o ABSOLUTE
    ..\..\library\usb\STM32_USB_Device_Library\Class\msc\src\usbd_msc_data.c 0x00000000   Number         0  usbd_msc_data.o ABSOLUTE
    ..\..\library\usb\STM32_USB_Device_Library\Class\msc\src\usbd_msc_scsi.c 0x00000000   Number         0  usbd_msc_scsi.o ABSOLUTE
    ..\..\library\usb\STM32_USB_Device_Library\Core\src\usbd_core.c 0x00000000   Number         0  usbd_core.o ABSOLUTE
    ..\..\library\usb\STM32_USB_Device_Library\Core\src\usbd_ioreq.c 0x00000000   Number         0  usbd_ioreq.o ABSOLUTE
    ..\..\library\usb\STM32_USB_Device_Library\Core\src\usbd_req.c 0x00000000   Number         0  usbd_req.o ABSOLUTE
    ..\..\library\usb\STM32_USB_OTG_Driver\src\usb_core.c 0x00000000   Number         0  usb_core.o ABSOLUTE
    ..\..\library\usb\STM32_USB_OTG_Driver\src\usb_dcd.c 0x00000000   Number         0  usb_dcd.o ABSOLUTE
    ..\..\library\usb\STM32_USB_OTG_Driver\src\usb_dcd_int.c 0x00000000   Number         0  usb_dcd_int.o ABSOLUTE
    ..\..\library\usb\USB_APP\usb_bsp.c      0x00000000   Number         0  usb_bsp.o ABSOLUTE
    ..\..\library\usb\USB_APP\usbd_desc.c    0x00000000   Number         0  usbd_desc.o ABSOLUTE
    ..\..\library\usb\USB_APP\usbd_storage_msd.c 0x00000000   Number         0  usbd_storage_msd.o ABSOLUTE
    ..\..\library\usb\USB_APP\usbd_usr.c     0x00000000   Number         0  usbd_usr.o ABSOLUTE
    ..\..\users\app\app.c                    0x00000000   Number         0  app.o ABSOLUTE
    ..\..\users\bsp\24cxx.c                  0x00000000   Number         0  24cxx.o ABSOLUTE
    ..\..\users\bsp\beep.c                   0x00000000   Number         0  beep.o ABSOLUTE
    ..\..\users\bsp\bsp.c                    0x00000000   Number         0  bsp.o ABSOLUTE
    ..\..\users\bsp\can.c                    0x00000000   Number         0  can.o ABSOLUTE
    ..\..\users\bsp\iic.c                    0x00000000   Number         0  iic.o ABSOLUTE
    ..\..\users\bsp\led.c                    0x00000000   Number         0  led.o ABSOLUTE
    ..\..\users\bsp\relay.c                  0x00000000   Number         0  relay.o ABSOLUTE
    ..\..\users\bsp\rtc.c                    0x00000000   Number         0  rtc.o ABSOLUTE
    ..\..\users\bsp\sdio.c                   0x00000000   Number         0  sdio.o ABSOLUTE
    ..\..\users\bsp\spi.c                    0x00000000   Number         0  spi.o ABSOLUTE
    ..\..\users\bsp\sys.c                    0x00000000   Number         0  sys.o ABSOLUTE
    ..\..\users\bsp\usart.c                  0x00000000   Number         0  usart.o ABSOLUTE
    ..\..\users\bsp\w25qxx.c                 0x00000000   Number         0  w25qxx.o ABSOLUTE
    ..\Libraries\misc.c                      0x00000000   Number         0  misc.o ABSOLUTE
    ..\Libraries\stm32f4xx_dma.c             0x00000000   Number         0  stm32f4xx_dma.o ABSOLUTE
    ..\Libraries\stm32f4xx_exti.c            0x00000000   Number         0  stm32f4xx_exti.o ABSOLUTE
    ..\Libraries\stm32f4xx_gpio.c            0x00000000   Number         0  stm32f4xx_gpio.o ABSOLUTE
    ..\Libraries\stm32f4xx_pwr.c             0x00000000   Number         0  stm32f4xx_pwr.o ABSOLUTE
    ..\Libraries\stm32f4xx_rcc.c             0x00000000   Number         0  stm32f4xx_rcc.o ABSOLUTE
    ..\Libraries\stm32f4xx_rtc.c             0x00000000   Number         0  stm32f4xx_rtc.o ABSOLUTE
    ..\Libraries\stm32f4xx_sdio.c            0x00000000   Number         0  stm32f4xx_sdio.o ABSOLUTE
    ..\Libraries\stm32f4xx_spi.c             0x00000000   Number         0  stm32f4xx_spi.o ABSOLUTE
    ..\Libraries\stm32f4xx_tim.c             0x00000000   Number         0  stm32f4xx_tim.o ABSOLUTE
    ..\Libraries\stm32f4xx_usart.c           0x00000000   Number         0  stm32f4xx_usart.o ABSOLUTE
    ..\\..\\library\\cmsis\\cm4\\device_support\\st\\stm32f4xx\\system_stm32f4xx.c 0x00000000   Number         0  system_stm32f4xx.o ABSOLUTE
    ..\\..\\library\\fatfs\\src\\diskio.c    0x00000000   Number         0  diskio.o ABSOLUTE
    ..\\..\\library\\usb\\STM32_USB_Device_Library\\Class\\msc\\src\\usbd_msc_bot.c 0x00000000   Number         0  usbd_msc_bot.o ABSOLUTE
    ..\\..\\library\\usb\\STM32_USB_Device_Library\\Class\\msc\\src\\usbd_msc_core.c 0x00000000   Number         0  usbd_msc_core.o ABSOLUTE
    ..\\..\\library\\usb\\STM32_USB_Device_Library\\Class\\msc\\src\\usbd_msc_data.c 0x00000000   Number         0  usbd_msc_data.o ABSOLUTE
    ..\\..\\library\\usb\\STM32_USB_Device_Library\\Class\\msc\\src\\usbd_msc_scsi.c 0x00000000   Number         0  usbd_msc_scsi.o ABSOLUTE
    ..\\..\\library\\usb\\STM32_USB_Device_Library\\Core\\src\\usbd_core.c 0x00000000   Number         0  usbd_core.o ABSOLUTE
    ..\\..\\library\\usb\\STM32_USB_Device_Library\\Core\\src\\usbd_ioreq.c 0x00000000   Number         0  usbd_ioreq.o ABSOLUTE
    ..\\..\\library\\usb\\STM32_USB_Device_Library\\Core\\src\\usbd_req.c 0x00000000   Number         0  usbd_req.o ABSOLUTE
    ..\\..\\library\\usb\\STM32_USB_OTG_Driver\\src\\usb_core.c 0x00000000   Number         0  usb_core.o ABSOLUTE
    ..\\..\\library\\usb\\STM32_USB_OTG_Driver\\src\\usb_dcd.c 0x00000000   Number         0  usb_dcd.o ABSOLUTE
    ..\\..\\library\\usb\\STM32_USB_OTG_Driver\\src\\usb_dcd_int.c 0x00000000   Number         0  usb_dcd_int.o ABSOLUTE
    ..\\..\\library\\usb\\USB_APP\\usb_bsp.c 0x00000000   Number         0  usb_bsp.o ABSOLUTE
    ..\\..\\library\\usb\\USB_APP\\usbd_desc.c 0x00000000   Number         0  usbd_desc.o ABSOLUTE
    ..\\..\\library\\usb\\USB_APP\\usbd_storage_msd.c 0x00000000   Number         0  usbd_storage_msd.o ABSOLUTE
    ..\\..\\library\\usb\\USB_APP\\usbd_usr.c 0x00000000   Number         0  usbd_usr.o ABSOLUTE
    ..\\..\\users\\app\\app.c                0x00000000   Number         0  app.o ABSOLUTE
    ..\\..\\users\\bsp\\24cxx.c              0x00000000   Number         0  24cxx.o ABSOLUTE
    ..\\..\\users\\bsp\\beep.c               0x00000000   Number         0  beep.o ABSOLUTE
    ..\\..\\users\\bsp\\bsp.c                0x00000000   Number         0  bsp.o ABSOLUTE
    ..\\..\\users\\bsp\\can.c                0x00000000   Number         0  can.o ABSOLUTE
    ..\\..\\users\\bsp\\iic.c                0x00000000   Number         0  iic.o ABSOLUTE
    ..\\..\\users\\bsp\\led.c                0x00000000   Number         0  led.o ABSOLUTE
    ..\\..\\users\\bsp\\relay.c              0x00000000   Number         0  relay.o ABSOLUTE
    ..\\..\\users\\bsp\\rtc.c                0x00000000   Number         0  rtc.o ABSOLUTE
    ..\\..\\users\\bsp\\sdio.c               0x00000000   Number         0  sdio.o ABSOLUTE
    ..\\..\\users\\bsp\\spi.c                0x00000000   Number         0  spi.o ABSOLUTE
    ..\\..\\users\\bsp\\sys.c                0x00000000   Number         0  sys.o ABSOLUTE
    ..\\..\\users\\bsp\\usart.c              0x00000000   Number         0  usart.o ABSOLUTE
    ..\\..\\users\\bsp\\w25qxx.c             0x00000000   Number         0  w25qxx.o ABSOLUTE
    ..\\Libraries\\misc.c                    0x00000000   Number         0  misc.o ABSOLUTE
    ..\\Libraries\\stm32f4xx_dma.c           0x00000000   Number         0  stm32f4xx_dma.o ABSOLUTE
    ..\\Libraries\\stm32f4xx_exti.c          0x00000000   Number         0  stm32f4xx_exti.o ABSOLUTE
    ..\\Libraries\\stm32f4xx_gpio.c          0x00000000   Number         0  stm32f4xx_gpio.o ABSOLUTE
    ..\\Libraries\\stm32f4xx_pwr.c           0x00000000   Number         0  stm32f4xx_pwr.o ABSOLUTE
    ..\\Libraries\\stm32f4xx_rcc.c           0x00000000   Number         0  stm32f4xx_rcc.o ABSOLUTE
    ..\\Libraries\\stm32f4xx_rtc.c           0x00000000   Number         0  stm32f4xx_rtc.o ABSOLUTE
    ..\\Libraries\\stm32f4xx_sdio.c          0x00000000   Number         0  stm32f4xx_sdio.o ABSOLUTE
    ..\\Libraries\\stm32f4xx_spi.c           0x00000000   Number         0  stm32f4xx_spi.o ABSOLUTE
    ..\\Libraries\\stm32f4xx_tim.c           0x00000000   Number         0  stm32f4xx_tim.o ABSOLUTE
    ..\\Libraries\\stm32f4xx_usart.c         0x00000000   Number         0  stm32f4xx_usart.o ABSOLUTE
    cdrcmple.s                               0x00000000   Number         0  cdrcmple.o ABSOLUTE
    dc.s                                     0x00000000   Number         0  dc.o ABSOLUTE
    handlers.s                               0x00000000   Number         0  handlers.o ABSOLUTE
    init.s                                   0x00000000   Number         0  init.o ABSOLUTE
    RESET                                    0x08000000   Section      392  startup_stm32f4xx.o(RESET)
    .ARM.Collect$$$$00000000                 0x08000188   Section        0  entry.o(.ARM.Collect$$$$00000000)
    .ARM.Collect$$$$00000001                 0x08000188   Section        4  entry2.o(.ARM.Collect$$$$00000001)
    .ARM.Collect$$$$00000004                 0x0800018c   Section        4  entry5.o(.ARM.Collect$$$$00000004)
    .ARM.Collect$$$$00000008                 0x08000190   Section        0  entry7b.o(.ARM.Collect$$$$00000008)
    .ARM.Collect$$$$0000000A                 0x08000190   Section        0  entry8b.o(.ARM.Collect$$$$0000000A)
    .ARM.Collect$$$$0000000B                 0x08000190   Section        8  entry9a.o(.ARM.Collect$$$$0000000B)
    .ARM.Collect$$$$0000000D                 0x08000198   Section        0  entry10a.o(.ARM.Collect$$$$0000000D)
    .ARM.Collect$$$$0000000F                 0x08000198   Section        0  entry11a.o(.ARM.Collect$$$$0000000F)
    .ARM.Collect$$$$00002712                 0x08000198   Section        4  entry2.o(.ARM.Collect$$$$00002712)
    __lit__00000000                          0x08000198   Data           4  entry2.o(.ARM.Collect$$$$00002712)
    .text                                    0x0800019c   Section       36  startup_stm32f4xx.o(.text)
    $v0                                      0x0800019c   Number         0  startup_stm32f4xx.o(.text)
    .text                                    0x080001c0   Section        0  app.o(.text)
    .text                                    0x08000268   Section        0  bsp.o(.text)
    .text                                    0x080002c0   Section        0  usart.o(.text)
    .text                                    0x08000464   Section        0  iic.o(.text)
    .text                                    0x080008c0   Section        0  spi.o(.text)
    .text                                    0x08000a98   Section        0  rtc.o(.text)
    .text                                    0x08000cc4   Section        0  sdio.o(.text)
    CmdResp1Error                            0x08000f65   Thumb Code   302  sdio.o(.text)
    FindSCR                                  0x08001093   Thumb Code   412  sdio.o(.text)
    SDEnWideBus                              0x0800122f   Thumb Code   274  sdio.o(.text)
    CmdResp2Error                            0x080016fd   Thumb Code    70  sdio.o(.text)
    CmdResp6Error                            0x08001743   Thumb Code   152  sdio.o(.text)
    CmdResp3Error                            0x08001901   Thumb Code    76  sdio.o(.text)
    CmdResp7Error                            0x0800194d   Thumb Code    72  sdio.o(.text)
    CmdError                                 0x08001995   Thumb Code    44  sdio.o(.text)
    IsCardProgramming                        0x08002351   Thumb Code   400  sdio.o(.text)
    .text                                    0x08002828   Section        0  led.o(.text)
    .text                                    0x08002b64   Section        0  beep.o(.text)
    .text                                    0x08002c14   Section        0  relay.o(.text)
    .text                                    0x08002cc4   Section        0  w25qxx.o(.text)
    .text                                    0x08003128   Section        0  24cxx.o(.text)
    .text                                    0x08003224   Section        0  system_stm32f4xx.o(.text)
    SetSysClock                              0x08003225   Thumb Code   220  system_stm32f4xx.o(.text)
    .text                                    0x08003434   Section        0  usb_bsp.o(.text)
    .text                                    0x080034f0   Section        0  usbd_usr.o(.text)
    .text                                    0x08003658   Section        0  usb_core.o(.text)
    USB_OTG_EnableCommonInt                  0x08003659   Thumb Code    52  usb_core.o(.text)
    USB_OTG_CoreReset                        0x0800368d   Thumb Code   108  usb_core.o(.text)
    .text                                    0x0800462e   Section        0  usb_dcd.o(.text)
    .text                                    0x080049ac   Section        0  usb_dcd_int.o(.text)
    DCD_IsoOUTIncomplete_ISR                 0x080049ad   Thumb Code    40  usb_dcd_int.o(.text)
    DCD_IsoINIncomplete_ISR                  0x080049d5   Thumb Code    40  usb_dcd_int.o(.text)
    DCD_HandleEnumDone_ISR                   0x080049fd   Thumb Code   102  usb_dcd_int.o(.text)
    DCD_HandleUsbReset_ISR                   0x08004a63   Thumb Code   254  usb_dcd_int.o(.text)
    DCD_HandleRxStatusQueueLevel_ISR         0x08004b61   Thumb Code   176  usb_dcd_int.o(.text)
    DCD_HandleSof_ISR                        0x08004c11   Thumb Code    38  usb_dcd_int.o(.text)
    DCD_HandleUSBSuspend_ISR                 0x08004c37   Thumb Code   158  usb_dcd_int.o(.text)
    DCD_HandleResume_ISR                     0x08004cd5   Thumb Code   100  usb_dcd_int.o(.text)
    DCD_WriteEmptyTxFifo                     0x08004d39   Thumb Code   154  usb_dcd_int.o(.text)
    DCD_ReadDevInEP                          0x08004dd3   Thumb Code    40  usb_dcd_int.o(.text)
    DCD_HandleInEP_ISR                       0x08004dfb   Thumb Code   320  usb_dcd_int.o(.text)
    DCD_HandleOutEP_ISR                      0x08004f3b   Thumb Code   252  usb_dcd_int.o(.text)
    .text                                    0x0800511c   Section        0  usbd_core.o(.text)
    USBD_SetupStage                          0x08005165   Thumb Code    84  usbd_core.o(.text)
    USBD_DataOutStage                        0x080051b9   Thumb Code   150  usbd_core.o(.text)
    USBD_RunTestMode                         0x0800524f   Thumb Code    14  usbd_core.o(.text)
    USBD_DataInStage                         0x0800525d   Thumb Code   208  usbd_core.o(.text)
    USBD_Reset                               0x0800532d   Thumb Code    50  usbd_core.o(.text)
    USBD_Resume                              0x0800535f   Thumb Code    30  usbd_core.o(.text)
    USBD_Suspend                             0x0800537d   Thumb Code    32  usbd_core.o(.text)
    USBD_SOF                                 0x0800539d   Thumb Code    26  usbd_core.o(.text)
    USBD_IsoINIncomplete                     0x080053eb   Thumb Code    18  usbd_core.o(.text)
    USBD_IsoOUTIncomplete                    0x080053fd   Thumb Code    18  usbd_core.o(.text)
    .text                                    0x08005414   Section        0  usbd_ioreq.o(.text)
    .text                                    0x08005508   Section        0  usbd_req.o(.text)
    USBD_ClrFeature                          0x08005527   Thumb Code    72  usbd_req.o(.text)
    USBD_SetFeature                          0x0800556f   Thumb Code   160  usbd_req.o(.text)
    USBD_GetStatus                           0x0800560f   Thumb Code    74  usbd_req.o(.text)
    USBD_GetConfig                           0x08005659   Thumb Code    78  usbd_req.o(.text)
    USBD_SetConfig                           0x080056a7   Thumb Code   204  usbd_req.o(.text)
    USBD_SetAddress                          0x08005773   Thumb Code    92  usbd_req.o(.text)
    USBD_GetDescriptor                       0x080057cf   Thumb Code   290  usbd_req.o(.text)
    USBD_GetLen                              0x08005b5f   Thumb Code    20  usbd_req.o(.text)
    .text                                    0x08005bc8   Section        0  misc.o(.text)
    .text                                    0x08005ca8   Section        0  stm32f4xx_tim.o(.text)
    TI4_Config                               0x08006447   Thumb Code    80  stm32f4xx_tim.o(.text)
    TI3_Config                               0x080064a9   Thumb Code    72  stm32f4xx_tim.o(.text)
    TI2_Config                               0x0800650b   Thumb Code    90  stm32f4xx_tim.o(.text)
    TI1_Config                               0x08006577   Thumb Code    58  stm32f4xx_tim.o(.text)
    .text                                    0x0800694c   Section        0  stm32f4xx_rcc.o(.text)
    .text                                    0x08006ed4   Section        0  stm32f4xx_exti.o(.text)
    .text                                    0x08006ff0   Section        0  stm32f4xx_gpio.o(.text)
    .text                                    0x0800724c   Section        0  stm32f4xx_dma.o(.text)
    .text                                    0x080075f4   Section        0  stm32f4xx_usart.o(.text)
    .text                                    0x08007a10   Section        0  stm32f4xx_pwr.o(.text)
    .text                                    0x08007b08   Section        0  stm32f4xx_rtc.o(.text)
    RTC_ByteToBcd2                           0x08007d9b   Thumb Code    28  stm32f4xx_rtc.o(.text)
    RTC_Bcd2ToByte                           0x08007db7   Thumb Code    22  stm32f4xx_rtc.o(.text)
    .text                                    0x08008870   Section        0  stm32f4xx_sdio.o(.text)
    .text                                    0x08008a4c   Section        0  stm32f4xx_spi.o(.text)
    .text                                    0x08008e44   Section        0  uldiv.o(.text)
    .text                                    0x08008ea6   Section        0  memcpya.o(.text)
    .text                                    0x08008eca   Section        0  uidiv.o(.text)
    .text                                    0x08008ef6   Section        0  llshl.o(.text)
    .text                                    0x08008f14   Section        0  llushr.o(.text)
    .text                                    0x08008f34   Section        0  dadd.o(.text)
    .text                                    0x08008f34   Section        0  iusefp.o(.text)
    .text                                    0x08009082   Section        0  dmul.o(.text)
    .text                                    0x08009166   Section        0  ddiv.o(.text)
    .text                                    0x08009244   Section        0  dfixul.o(.text)
    .text                                    0x08009274   Section       48  cdrcmple.o(.text)
    .text                                    0x080092a4   Section       36  init.o(.text)
    .text                                    0x080092c8   Section        0  llsshr.o(.text)
    .text                                    0x080092ec   Section        0  depilogue.o(.text)
    i.__0printf$1                            0x080093a8   Section        0  printf1.o(i.__0printf$1)
    i.__0vsnprintf                           0x080093c8   Section        0  printfa.o(i.__0vsnprintf)
    i.__scatterload_copy                     0x080093f4   Section       14  handlers.o(i.__scatterload_copy)
    i.__scatterload_null                     0x08009402   Section        2  handlers.o(i.__scatterload_null)
    i.__scatterload_zeroinit                 0x08009404   Section       14  handlers.o(i.__scatterload_zeroinit)
    i._fp_digits                             0x08009414   Section        0  printfa.o(i._fp_digits)
    _fp_digits                               0x08009415   Thumb Code   366  printfa.o(i._fp_digits)
    i._printf_core                           0x08009598   Section        0  printf1.o(i._printf_core)
    _printf_core                             0x08009599   Thumb Code   336  printf1.o(i._printf_core)
    i._printf_core                           0x080096ec   Section        0  printfa.o(i._printf_core)
    _printf_core                             0x080096ed   Thumb Code  1744  printfa.o(i._printf_core)
    i._printf_post_padding                   0x08009dc8   Section        0  printfa.o(i._printf_post_padding)
    _printf_post_padding                     0x08009dc9   Thumb Code    36  printfa.o(i._printf_post_padding)
    i._printf_pre_padding                    0x08009dec   Section        0  printfa.o(i._printf_pre_padding)
    _printf_pre_padding                      0x08009ded   Thumb Code    46  printfa.o(i._printf_pre_padding)
    i._snputc                                0x08009e1a   Section        0  printfa.o(i._snputc)
    _snputc                                  0x08009e1b   Thumb Code    22  printfa.o(i._snputc)
    .constdata                               0x08009e30   Section       48  led.o(.constdata)
    GPIO_PIN                                 0x08009e30   Data          16  led.o(.constdata)
    GPIO_CLK                                 0x08009e40   Data          32  led.o(.constdata)
    .constdata                               0x08009e60   Section        8  beep.o(.constdata)
    GPIO_PIN                                 0x08009e60   Data           2  beep.o(.constdata)
    GPIO_CLK                                 0x08009e64   Data           4  beep.o(.constdata)
    .constdata                               0x08009e68   Section       20  relay.o(.constdata)
    GPIO_PIN                                 0x08009e68   Data           6  relay.o(.constdata)
    GPIO_CLK                                 0x08009e70   Data          12  relay.o(.constdata)
    .data                                    0x20000000   Section       23  app.o(.data)
    .data                                    0x20000018   Section       20  iic.o(.data)
    .data                                    0x2000002c   Section       24  sdio.o(.data)
    CardType                                 0x2000002c   Data           4  sdio.o(.data)
    RCA                                      0x20000030   Data           4  sdio.o(.data)
    .data                                    0x20000044   Section       32  led.o(.data)
    GPIO_PORT                                0x20000044   Data          32  led.o(.data)
    .data                                    0x20000064   Section        4  beep.o(.data)
    GPIO_PORT                                0x20000064   Data           4  beep.o(.data)
    .data                                    0x20000068   Section       12  relay.o(.data)
    GPIO_PORT                                0x20000068   Data          12  relay.o(.data)
    .data                                    0x20000074   Section        2  w25qxx.o(.data)
    .data                                    0x20000078   Section       20  system_stm32f4xx.o(.data)
    .data                                    0x2000008c   Section       32  usbd_usr.o(.data)
    .data                                    0x200000ac   Section       52  usbd_core.o(.data)
    .data                                    0x200000e0   Section       13  usbd_req.o(.data)
    cfgidx                                   0x200000ec   Data           1  usbd_req.o(.data)
    .data                                    0x200000ed   Section       16  stm32f4xx_rcc.o(.data)
    APBAHBPrescTable                         0x200000ed   Data          16  stm32f4xx_rcc.o(.data)
    .data                                    0x20000100   Section        4  stdout.o(.data)
    .bss                                     0x20000104   Section     2172  app.o(.bss)
    .bss                                     0x20000980   Section      716  sdio.o(.bss)
    CSD_Tab                                  0x20000980   Data          16  sdio.o(.bss)
    CID_Tab                                  0x20000990   Data          16  sdio.o(.bss)
    SDSTATUS_Tab                             0x200009a0   Data          16  sdio.o(.bss)
    .bss                                     0x20000c4c   Section     4096  w25qxx.o(.bss)
    STACK                                    0x20001c50   Section     1024  startup_stm32f4xx.o(STACK)

    Global Symbols

    Symbol Name                              Value     Ov Type        Size  Object(Section)

    BuildAttributes$$THM_ISAv4$E$P$D$K$B$S$7EM$VFPi3$EXTD16$VFPS$VFMA$PE$A:L22UL41UL21$X:L11$S22US41US21$IEEE1$IW$USESV6$~STKCKD$USESV7$~SHL$OSPACE$ROPI$EBA8$MICROLIB$REQ8$PRES8$EABIv2 0x00000000   Number         0  anon$$obj.o ABSOLUTE
    __ARM_use_no_argv                        0x00000000   Number         0  app.o ABSOLUTE
    _printf_a                                0x00000000   Number         0  stubs.o ABSOLUTE
    _printf_c                                0x00000000   Number         0  stubs.o ABSOLUTE
    _printf_charcount                        0x00000000   Number         0  stubs.o ABSOLUTE
    _printf_d                                0x00000000   Number         0  stubs.o ABSOLUTE
    _printf_e                                0x00000000   Number         0  stubs.o ABSOLUTE
    _printf_f                                0x00000000   Number         0  stubs.o ABSOLUTE
    _printf_flags                            0x00000000   Number         0  stubs.o ABSOLUTE
    _printf_fp_dec                           0x00000000   Number         0  stubs.o ABSOLUTE
    _printf_fp_hex                           0x00000000   Number         0  stubs.o ABSOLUTE
    _printf_g                                0x00000000   Number         0  stubs.o ABSOLUTE
    _printf_i                                0x00000000   Number         0  stubs.o ABSOLUTE
    _printf_int_dec                          0x00000000   Number         0  stubs.o ABSOLUTE
    _printf_l                                0x00000000   Number         0  stubs.o ABSOLUTE
    _printf_lc                               0x00000000   Number         0  stubs.o ABSOLUTE
    _printf_ll                               0x00000000   Number         0  stubs.o ABSOLUTE
    _printf_lld                              0x00000000   Number         0  stubs.o ABSOLUTE
    _printf_lli                              0x00000000   Number         0  stubs.o ABSOLUTE
    _printf_llo                              0x00000000   Number         0  stubs.o ABSOLUTE
    _printf_llu                              0x00000000   Number         0  stubs.o ABSOLUTE
    _printf_llx                              0x00000000   Number         0  stubs.o ABSOLUTE
    _printf_longlong_dec                     0x00000000   Number         0  stubs.o ABSOLUTE
    _printf_longlong_hex                     0x00000000   Number         0  stubs.o ABSOLUTE
    _printf_longlong_oct                     0x00000000   Number         0  stubs.o ABSOLUTE
    _printf_ls                               0x00000000   Number         0  stubs.o ABSOLUTE
    _printf_mbtowc                           0x00000000   Number         0  stubs.o ABSOLUTE
    _printf_n                                0x00000000   Number         0  stubs.o ABSOLUTE
    _printf_o                                0x00000000   Number         0  stubs.o ABSOLUTE
    _printf_p                                0x00000000   Number         0  stubs.o ABSOLUTE
    _printf_percent                          0x00000000   Number         0  stubs.o ABSOLUTE
    _printf_pre_padding                      0x00000000   Number         0  stubs.o ABSOLUTE
    _printf_return_value                     0x00000000   Number         0  stubs.o ABSOLUTE
    _printf_s                                0x00000000   Number         0  stubs.o ABSOLUTE
    _printf_sizespec                         0x00000000   Number         0  stubs.o ABSOLUTE
    _printf_str                              0x00000000   Number         0  stubs.o ABSOLUTE
    _printf_truncate_signed                  0x00000000   Number         0  stubs.o ABSOLUTE
    _printf_truncate_unsigned                0x00000000   Number         0  stubs.o ABSOLUTE
    _printf_u                                0x00000000   Number         0  stubs.o ABSOLUTE
    _printf_wc                               0x00000000   Number         0  stubs.o ABSOLUTE
    _printf_wctomb                           0x00000000   Number         0  stubs.o ABSOLUTE
    _printf_widthprec                        0x00000000   Number         0  stubs.o ABSOLUTE
    _printf_x                                0x00000000   Number         0  stubs.o ABSOLUTE
    __cpp_initialize__aeabi_                  - Undefined Weak Reference
    __cxa_finalize                            - Undefined Weak Reference
    __decompress                              - Undefined Weak Reference
    _clock_init                               - Undefined Weak Reference
    _microlib_exit                            - Undefined Weak Reference
    __Vectors_Size                           0x00000188   Number         0  startup_stm32f4xx.o ABSOLUTE
    __Vectors                                0x08000000   Data           4  startup_stm32f4xx.o(RESET)
    __Vectors_End                            0x08000188   Data           0  startup_stm32f4xx.o(RESET)
    __main                                   0x08000189   Thumb Code     0  entry.o(.ARM.Collect$$$$00000000)
    _main_stk                                0x08000189   Thumb Code     0  entry2.o(.ARM.Collect$$$$00000001)
    _main_scatterload                        0x0800018d   Thumb Code     0  entry5.o(.ARM.Collect$$$$00000004)
    __main_after_scatterload                 0x08000191   Thumb Code     0  entry5.o(.ARM.Collect$$$$00000004)
    _main_clock                              0x08000191   Thumb Code     0  entry7b.o(.ARM.Collect$$$$00000008)
    _main_cpp_init                           0x08000191   Thumb Code     0  entry8b.o(.ARM.Collect$$$$0000000A)
    _main_init                               0x08000191   Thumb Code     0  entry9a.o(.ARM.Collect$$$$0000000B)
    __rt_final_cpp                           0x08000199   Thumb Code     0  entry10a.o(.ARM.Collect$$$$0000000D)
    __rt_final_exit                          0x08000199   Thumb Code     0  entry11a.o(.ARM.Collect$$$$0000000F)
    Reset_Handler                            0x0800019d   Thumb Code     8  startup_stm32f4xx.o(.text)
    NMI_Handler                              0x080001a5   Thumb Code     2  startup_stm32f4xx.o(.text)
    HardFault_Handler                        0x080001a7   Thumb Code     2  startup_stm32f4xx.o(.text)
    MemManage_Handler                        0x080001a9   Thumb Code     2  startup_stm32f4xx.o(.text)
    BusFault_Handler                         0x080001ab   Thumb Code     2  startup_stm32f4xx.o(.text)
    UsageFault_Handler                       0x080001ad   Thumb Code     2  startup_stm32f4xx.o(.text)
    SVC_Handler                              0x080001af   Thumb Code     2  startup_stm32f4xx.o(.text)
    DebugMon_Handler                         0x080001b1   Thumb Code     2  startup_stm32f4xx.o(.text)
    PendSV_Handler                           0x080001b3   Thumb Code     2  startup_stm32f4xx.o(.text)
    SysTick_Handler                          0x080001b5   Thumb Code     2  startup_stm32f4xx.o(.text)
    ADC_IRQHandler                           0x080001b7   Thumb Code     0  startup_stm32f4xx.o(.text)
    CAN1_RX0_IRQHandler                      0x080001b7   Thumb Code     0  startup_stm32f4xx.o(.text)
    CAN1_RX1_IRQHandler                      0x080001b7   Thumb Code     0  startup_stm32f4xx.o(.text)
    CAN1_SCE_IRQHandler                      0x080001b7   Thumb Code     0  startup_stm32f4xx.o(.text)
    CAN1_TX_IRQHandler                       0x080001b7   Thumb Code     0  startup_stm32f4xx.o(.text)
    CAN2_RX0_IRQHandler                      0x080001b7   Thumb Code     0  startup_stm32f4xx.o(.text)
    CAN2_RX1_IRQHandler                      0x080001b7   Thumb Code     0  startup_stm32f4xx.o(.text)
    CAN2_SCE_IRQHandler                      0x080001b7   Thumb Code     0  startup_stm32f4xx.o(.text)
    CAN2_TX_IRQHandler                       0x080001b7   Thumb Code     0  startup_stm32f4xx.o(.text)
    CRYP_IRQHandler                          0x080001b7   Thumb Code     0  startup_stm32f4xx.o(.text)
    DCMI_IRQHandler                          0x080001b7   Thumb Code     0  startup_stm32f4xx.o(.text)
    DMA1_Stream0_IRQHandler                  0x080001b7   Thumb Code     0  startup_stm32f4xx.o(.text)
    DMA1_Stream1_IRQHandler                  0x080001b7   Thumb Code     0  startup_stm32f4xx.o(.text)
    DMA1_Stream2_IRQHandler                  0x080001b7   Thumb Code     0  startup_stm32f4xx.o(.text)
    DMA1_Stream3_IRQHandler                  0x080001b7   Thumb Code     0  startup_stm32f4xx.o(.text)
    DMA1_Stream4_IRQHandler                  0x080001b7   Thumb Code     0  startup_stm32f4xx.o(.text)
    DMA1_Stream5_IRQHandler                  0x080001b7   Thumb Code     0  startup_stm32f4xx.o(.text)
    DMA1_Stream6_IRQHandler                  0x080001b7   Thumb Code     0  startup_stm32f4xx.o(.text)
    DMA1_Stream7_IRQHandler                  0x080001b7   Thumb Code     0  startup_stm32f4xx.o(.text)
    DMA2_Stream0_IRQHandler                  0x080001b7   Thumb Code     0  startup_stm32f4xx.o(.text)
    DMA2_Stream1_IRQHandler                  0x080001b7   Thumb Code     0  startup_stm32f4xx.o(.text)
    DMA2_Stream2_IRQHandler                  0x080001b7   Thumb Code     0  startup_stm32f4xx.o(.text)
    DMA2_Stream4_IRQHandler                  0x080001b7   Thumb Code     0  startup_stm32f4xx.o(.text)
    DMA2_Stream5_IRQHandler                  0x080001b7   Thumb Code     0  startup_stm32f4xx.o(.text)
    DMA2_Stream6_IRQHandler                  0x080001b7   Thumb Code     0  startup_stm32f4xx.o(.text)
    DMA2_Stream7_IRQHandler                  0x080001b7   Thumb Code     0  startup_stm32f4xx.o(.text)
    ETH_IRQHandler                           0x080001b7   Thumb Code     0  startup_stm32f4xx.o(.text)
    ETH_WKUP_IRQHandler                      0x080001b7   Thumb Code     0  startup_stm32f4xx.o(.text)
    EXTI0_IRQHandler                         0x080001b7   Thumb Code     0  startup_stm32f4xx.o(.text)
    EXTI15_10_IRQHandler                     0x080001b7   Thumb Code     0  startup_stm32f4xx.o(.text)
    EXTI1_IRQHandler                         0x080001b7   Thumb Code     0  startup_stm32f4xx.o(.text)
    EXTI2_IRQHandler                         0x080001b7   Thumb Code     0  startup_stm32f4xx.o(.text)
    EXTI3_IRQHandler                         0x080001b7   Thumb Code     0  startup_stm32f4xx.o(.text)
    EXTI4_IRQHandler                         0x080001b7   Thumb Code     0  startup_stm32f4xx.o(.text)
    EXTI9_5_IRQHandler                       0x080001b7   Thumb Code     0  startup_stm32f4xx.o(.text)
    FLASH_IRQHandler                         0x080001b7   Thumb Code     0  startup_stm32f4xx.o(.text)
    FPU_IRQHandler                           0x080001b7   Thumb Code     0  startup_stm32f4xx.o(.text)
    FSMC_IRQHandler                          0x080001b7   Thumb Code     0  startup_stm32f4xx.o(.text)
    HASH_RNG_IRQHandler                      0x080001b7   Thumb Code     0  startup_stm32f4xx.o(.text)
    I2C1_ER_IRQHandler                       0x080001b7   Thumb Code     0  startup_stm32f4xx.o(.text)
    I2C1_EV_IRQHandler                       0x080001b7   Thumb Code     0  startup_stm32f4xx.o(.text)
    I2C2_ER_IRQHandler                       0x080001b7   Thumb Code     0  startup_stm32f4xx.o(.text)
    I2C2_EV_IRQHandler                       0x080001b7   Thumb Code     0  startup_stm32f4xx.o(.text)
    I2C3_ER_IRQHandler                       0x080001b7   Thumb Code     0  startup_stm32f4xx.o(.text)
    I2C3_EV_IRQHandler                       0x080001b7   Thumb Code     0  startup_stm32f4xx.o(.text)
    OTG_FS_WKUP_IRQHandler                   0x080001b7   Thumb Code     0  startup_stm32f4xx.o(.text)
    OTG_HS_EP1_IN_IRQHandler                 0x080001b7   Thumb Code     0  startup_stm32f4xx.o(.text)
    OTG_HS_EP1_OUT_IRQHandler                0x080001b7   Thumb Code     0  startup_stm32f4xx.o(.text)
    OTG_HS_IRQHandler                        0x080001b7   Thumb Code     0  startup_stm32f4xx.o(.text)
    OTG_HS_WKUP_IRQHandler                   0x080001b7   Thumb Code     0  startup_stm32f4xx.o(.text)
    PVD_IRQHandler                           0x080001b7   Thumb Code     0  startup_stm32f4xx.o(.text)
    RCC_IRQHandler                           0x080001b7   Thumb Code     0  startup_stm32f4xx.o(.text)
    SPI1_IRQHandler                          0x080001b7   Thumb Code     0  startup_stm32f4xx.o(.text)
    SPI2_IRQHandler                          0x080001b7   Thumb Code     0  startup_stm32f4xx.o(.text)
    SPI3_IRQHandler                          0x080001b7   Thumb Code     0  startup_stm32f4xx.o(.text)
    TAMP_STAMP_IRQHandler                    0x080001b7   Thumb Code     0  startup_stm32f4xx.o(.text)
    TIM1_BRK_TIM9_IRQHandler                 0x080001b7   Thumb Code     0  startup_stm32f4xx.o(.text)
    TIM1_CC_IRQHandler                       0x080001b7   Thumb Code     0  startup_stm32f4xx.o(.text)
    TIM1_TRG_COM_TIM11_IRQHandler            0x080001b7   Thumb Code     0  startup_stm32f4xx.o(.text)
    TIM1_UP_TIM10_IRQHandler                 0x080001b7   Thumb Code     0  startup_stm32f4xx.o(.text)
    TIM2_IRQHandler                          0x080001b7   Thumb Code     0  startup_stm32f4xx.o(.text)
    TIM3_IRQHandler                          0x080001b7   Thumb Code     0  startup_stm32f4xx.o(.text)
    TIM4_IRQHandler                          0x080001b7   Thumb Code     0  startup_stm32f4xx.o(.text)
    TIM5_IRQHandler                          0x080001b7   Thumb Code     0  startup_stm32f4xx.o(.text)
    TIM6_DAC_IRQHandler                      0x080001b7   Thumb Code     0  startup_stm32f4xx.o(.text)
    TIM7_IRQHandler                          0x080001b7   Thumb Code     0  startup_stm32f4xx.o(.text)
    TIM8_BRK_TIM12_IRQHandler                0x080001b7   Thumb Code     0  startup_stm32f4xx.o(.text)
    TIM8_CC_IRQHandler                       0x080001b7   Thumb Code     0  startup_stm32f4xx.o(.text)
    TIM8_TRG_COM_TIM14_IRQHandler            0x080001b7   Thumb Code     0  startup_stm32f4xx.o(.text)
    TIM8_UP_TIM13_IRQHandler                 0x080001b7   Thumb Code     0  startup_stm32f4xx.o(.text)
    UART4_IRQHandler                         0x080001b7   Thumb Code     0  startup_stm32f4xx.o(.text)
    UART5_IRQHandler                         0x080001b7   Thumb Code     0  startup_stm32f4xx.o(.text)
    USART1_IRQHandler                        0x080001b7   Thumb Code     0  startup_stm32f4xx.o(.text)
    USART2_IRQHandler                        0x080001b7   Thumb Code     0  startup_stm32f4xx.o(.text)
    USART3_IRQHandler                        0x080001b7   Thumb Code     0  startup_stm32f4xx.o(.text)
    USART6_IRQHandler                        0x080001b7   Thumb Code     0  startup_stm32f4xx.o(.text)
    WWDG_IRQHandler                          0x080001b7   Thumb Code     0  startup_stm32f4xx.o(.text)
    main                                     0x080001c1   Thumb Code   146  app.o(.text)
    nvic_config                              0x08000269   Thumb Code    16  bsp.o(.text)
    bsp_config                               0x08000279   Thumb Code    10  bsp.o(.text)
    delay_us                                 0x08000283   Thumb Code    30  bsp.o(.text)
    delay_ms                                 0x080002a1   Thumb Code    32  bsp.o(.text)
    usart1_config                            0x080002c1   Thumb Code   178  usart.o(.text)
    usart2_config                            0x08000373   Thumb Code     6  usart.o(.text)
    usart3_config                            0x08000379   Thumb Code     6  usart.o(.text)
    usart4_config                            0x0800037f   Thumb Code     6  usart.o(.text)
    usart5_config                            0x08000385   Thumb Code     6  usart.o(.text)
    usart6_config                            0x0800038b   Thumb Code     6  usart.o(.text)
    usart_send_byte                          0x08000391   Thumb Code    32  usart.o(.text)
    usart_send_bytes                         0x080003b1   Thumb Code    52  usart.o(.text)
    usart_send_str                           0x080003e5   Thumb Code    42  usart.o(.text)
    usart_printf                             0x0800040f   Thumb Code    46  usart.o(.text)
    fputc                                    0x0800043d   Thumb Code    32  usart.o(.text)
    iic_config                               0x08000465   Thumb Code    54  iic.o(.text)
    iic_delay                                0x0800049b   Thumb Code    28  iic.o(.text)
    iic_sda_out                              0x080004b7   Thumb Code     2  iic.o(.text)
    iic_stop                                 0x080004b9   Thumb Code    68  iic.o(.text)
    iic_ack                                  0x080004fd   Thumb Code    74  iic.o(.text)
    iic_sda_in                               0x08000547   Thumb Code     2  iic.o(.text)
    iic_read_byte                            0x08000549   Thumb Code    96  iic.o(.text)
    iic_wait_ack                             0x080005a9   Thumb Code    98  iic.o(.text)
    iic_write_byte                           0x0800060b   Thumb Code   108  iic.o(.text)
    iic_start                                0x08000677   Thumb Code    68  iic.o(.text)
    iic_read_bytes                           0x080006bb   Thumb Code   130  iic.o(.text)
    iic_read_one_byte                        0x0800073d   Thumb Code    98  iic.o(.text)
    iic_write_bytes                          0x0800079f   Thumb Code     8  iic.o(.text)
    iic_write_one_byte                       0x080007a7   Thumb Code    80  iic.o(.text)
    iic_write_bits                           0x080007f7   Thumb Code   108  iic.o(.text)
    iic_write_bit                            0x08000863   Thumb Code    92  iic.o(.text)
    spi_config                               0x080008c1   Thumb Code   406  spi.o(.text)
    spi_set_speed                            0x08000a57   Thumb Code     6  spi.o(.text)
    spi_rw                                   0x08000a5d   Thumb Code    42  spi.o(.text)
    rtc_set_wake_up                          0x08000a99   Thumb Code   114  rtc.o(.text)
    rtc_set_date                             0x08000b0b   Thumb Code    36  rtc.o(.text)
    rtc_set_time                             0x08000b2f   Thumb Code    36  rtc.o(.text)
    rtc_config                               0x08000b53   Thumb Code   146  rtc.o(.text)
    rtc_set_alarm                            0x08000be5   Thumb Code   164  rtc.o(.text)
    RTC_Alarm_IRQHandler                     0x08000c89   Thumb Code    30  rtc.o(.text)
    RTC_WKUP_IRQHandler                      0x08000ca7   Thumb Code    30  rtc.o(.text)
    SD_LowLevel_DeInit                       0x08000cc5   Thumb Code   194  sdio.o(.text)
    SD_LowLevel_Init                         0x08000d87   Thumb Code   204  sdio.o(.text)
    SD_LowLevel_DMA_TxConfig                 0x08000e53   Thumb Code   134  sdio.o(.text)
    SD_LowLevel_DMA_RxConfig                 0x08000ed9   Thumb Code   132  sdio.o(.text)
    SD_DeInit                                0x08000f5d   Thumb Code     8  sdio.o(.text)
    SD_EnableWideBusOperation                0x08001341   Thumb Code   136  sdio.o(.text)
    SD_SelectDeselect                        0x080013c9   Thumb Code    48  sdio.o(.text)
    SD_GetCardInfo                           0x080013f9   Thumb Code   772  sdio.o(.text)
    SD_InitializeCards                       0x080017db   Thumb Code   294  sdio.o(.text)
    SD_PowerON                               0x080019c1   Thumb Code   400  sdio.o(.text)
    SD_Init                                  0x08001b51   Thumb Code   122  sdio.o(.text)
    SD_SendStatus                            0x08001bcb   Thumb Code    74  sdio.o(.text)
    SD_Detect                                0x08001c15   Thumb Code    12  sdio.o(.text)
    SD_GetState                              0x08001c21   Thumb Code    38  sdio.o(.text)
    SD_GetStatus                             0x08001c47   Thumb Code    30  sdio.o(.text)
    SD_PowerOFF                              0x08001c65   Thumb Code    14  sdio.o(.text)
    SD_SendSDStatus                          0x08001c73   Thumb Code   402  sdio.o(.text)
    SD_GetCardStatus                         0x08001e05   Thumb Code   156  sdio.o(.text)
    SD_ReadBlock                             0x08001ea1   Thumb Code   196  sdio.o(.text)
    SD_ReadMultiBlocks                       0x08001f65   Thumb Code   206  sdio.o(.text)
    SD_StopTransfer                          0x08002033   Thumb Code    46  sdio.o(.text)
    SD_WaitReadOperation                     0x08002061   Thumb Code   102  sdio.o(.text)
    SD_WriteBlock                            0x080020c7   Thumb Code   232  sdio.o(.text)
    SD_WriteMultiBlocks                      0x080021af   Thumb Code   294  sdio.o(.text)
    SD_WaitWriteOperation                    0x080022d5   Thumb Code   104  sdio.o(.text)
    SD_GetTransferState                      0x0800233d   Thumb Code    20  sdio.o(.text)
    SD_Erase                                 0x080024e1   Thumb Code   348  sdio.o(.text)
    SD_ProcessIRQSrc                         0x0800263d   Thumb Code   162  sdio.o(.text)
    SD_ProcessDMAIRQ                         0x080026df   Thumb Code    32  sdio.o(.text)
    convert_from_bytes_to_power_of_two       0x080026ff   Thumb Code    18  sdio.o(.text)
    SD_ReadDisk                              0x08002711   Thumb Code   118  sdio.o(.text)
    SD_WriteDisk                             0x08002787   Thumb Code   122  sdio.o(.text)
    SDIO_IRQHandler                          0x08002801   Thumb Code     8  sdio.o(.text)
    DMA2_Stream3_IRQHandler                  0x08002809   Thumb Code     8  sdio.o(.text)
    led_off                                  0x08002829   Thumb Code    24  led.o(.text)
    led_init                                 0x08002841   Thumb Code    64  led.o(.text)
    led_config                               0x08002881   Thumb Code    30  led.o(.text)
    led_on                                   0x0800289f   Thumb Code    24  led.o(.text)
    led_toggle                               0x080028b7   Thumb Code    24  led.o(.text)
    led_rgb_config                           0x080028cf   Thumb Code   296  led.o(.text)
    led_rgb_set                              0x080029f7   Thumb Code   336  led.o(.text)
    beep_off                                 0x08002b65   Thumb Code    24  beep.o(.text)
    beep_init                                0x08002b7d   Thumb Code    64  beep.o(.text)
    beep_config                              0x08002bbd   Thumb Code    28  beep.o(.text)
    beep_on                                  0x08002bd9   Thumb Code    24  beep.o(.text)
    beep_toggle                              0x08002bf1   Thumb Code    24  beep.o(.text)
    relay_off                                0x08002c15   Thumb Code    24  relay.o(.text)
    relay_init                               0x08002c2d   Thumb Code    64  relay.o(.text)
    relay_config                             0x08002c6d   Thumb Code    28  relay.o(.text)
    relay_on                                 0x08002c89   Thumb Code    24  relay.o(.text)
    relay_toggle                             0x08002ca1   Thumb Code    24  relay.o(.text)
    w25qxx_read_state_register               0x08002cc5   Thumb Code    82  w25qxx.o(.text)
    w25qxx_read_id                           0x08002d17   Thumb Code    82  w25qxx.o(.text)
    w25qxx_config                            0x08002d69   Thumb Code    76  w25qxx.o(.text)
    w25qxx_write_state_register              0x08002db5   Thumb Code    78  w25qxx.o(.text)
    w25qxx_write_enable                      0x08002e03   Thumb Code    32  w25qxx.o(.text)
    w25qxx_write_disable                     0x08002e23   Thumb Code    32  w25qxx.o(.text)
    w25qxx_read                              0x08002e43   Thumb Code   112  w25qxx.o(.text)
    w25qxx_wait_busy                         0x08002eb3   Thumb Code    20  w25qxx.o(.text)
    w25qxx_write_page                        0x08002ec7   Thumb Code   118  w25qxx.o(.text)
    w25qxx_write_no_check                    0x08002f3d   Thumb Code    70  w25qxx.o(.text)
    w25qxx_erase_sector                      0x08002f83   Thumb Code    96  w25qxx.o(.text)
    w25qxx_write                             0x08002fe3   Thumb Code   180  w25qxx.o(.text)
    w25qxx_erase_chip                        0x08003097   Thumb Code    44  w25qxx.o(.text)
    w25qxx_power_down                        0x080030c3   Thumb Code    54  w25qxx.o(.text)
    w25qxx_wake_up                           0x080030f9   Thumb Code    38  w25qxx.o(.text)
    atc24cxx_config                          0x08003129   Thumb Code     4  24cxx.o(.text)
    atc24cxx_check                           0x0800312d   Thumb Code     4  24cxx.o(.text)
    atc24cxx_clear                           0x08003131   Thumb Code     4  24cxx.o(.text)
    atc24cxx_read_one_byte                   0x08003135   Thumb Code    90  24cxx.o(.text)
    atc24cxx_write_one_byte                  0x0800318f   Thumb Code    78  24cxx.o(.text)
    atc24cxx_read_bytes                      0x080031dd   Thumb Code    34  24cxx.o(.text)
    atc24cxx_write_bytes                     0x080031ff   Thumb Code    36  24cxx.o(.text)
    SystemInit                               0x08003301   Thumb Code    88  system_stm32f4xx.o(.text)
    SystemCoreClockUpdate                    0x08003359   Thumb Code   174  system_stm32f4xx.o(.text)
    USB_OTG_BSP_Init                         0x08003435   Thumb Code   112  usb_bsp.o(.text)
    USB_OTG_BSP_EnableInterrupt              0x080034a5   Thumb Code    36  usb_bsp.o(.text)
    USB_OTG_BSP_DisableInterrupt             0x080034c9   Thumb Code     2  usb_bsp.o(.text)
    USB_OTG_BSP_DriveVBUS                    0x080034cb   Thumb Code     2  usb_bsp.o(.text)
    USB_OTG_BSP_ConfigVBUS                   0x080034cd   Thumb Code     2  usb_bsp.o(.text)
    USB_OTG_BSP_uDelay                       0x080034cf   Thumb Code    12  usb_bsp.o(.text)
    USB_OTG_BSP_mDelay                       0x080034db   Thumb Code    12  usb_bsp.o(.text)
    OTG_FS_IRQHandler                        0x080034f1   Thumb Code    10  usbd_usr.o(.text)
    USBD_USR_Init                            0x080034fb   Thumb Code     2  usbd_usr.o(.text)
    USBD_USR_DeviceReset                     0x080034fd   Thumb Code    40  usbd_usr.o(.text)
    USBD_USR_DeviceConfigured                0x08003525   Thumb Code    10  usbd_usr.o(.text)
    USBD_USR_DeviceSuspended                 0x0800352f   Thumb Code    10  usbd_usr.o(.text)
    USBD_USR_DeviceResumed                   0x08003539   Thumb Code    10  usbd_usr.o(.text)
    USBD_USR_DeviceConnected                 0x08003543   Thumb Code    16  usbd_usr.o(.text)
    USBD_USR_DeviceDisconnected              0x08003553   Thumb Code    16  usbd_usr.o(.text)
    USB_OTG_WritePacket                      0x080036f9   Thumb Code    64  usb_core.o(.text)
    USB_OTG_ReadPacket                       0x08003739   Thumb Code    40  usb_core.o(.text)
    USB_OTG_SelectCore                       0x08003761   Thumb Code   204  usb_core.o(.text)
    USB_OTG_CoreInit                         0x0800382d   Thumb Code   294  usb_core.o(.text)
    USB_OTG_EnableGlobalInt                  0x08003953   Thumb Code    34  usb_core.o(.text)
    USB_OTG_DisableGlobalInt                 0x08003975   Thumb Code    34  usb_core.o(.text)
    USB_OTG_FlushTxFifo                      0x08003997   Thumb Code    80  usb_core.o(.text)
    USB_OTG_FlushRxFifo                      0x080039e7   Thumb Code    70  usb_core.o(.text)
    USB_OTG_SetCurrentMode                   0x08003a2d   Thumb Code    78  usb_core.o(.text)
    USB_OTG_GetMode                          0x08003a7b   Thumb Code    22  usb_core.o(.text)
    USB_OTG_IsDeviceMode                     0x08003a91   Thumb Code    22  usb_core.o(.text)
    USB_OTG_IsHostMode                       0x08003aa7   Thumb Code    20  usb_core.o(.text)
    USB_OTG_ReadCoreItr                      0x08003abb   Thumb Code    16  usb_core.o(.text)
    USB_OTG_ReadOtgItr                       0x08003acb   Thumb Code     8  usb_core.o(.text)
    USB_OTG_InitDevSpeed                     0x08003ad3   Thumb Code    24  usb_core.o(.text)
    USB_OTG_EnableDevInt                     0x08003aeb   Thumb Code   154  usb_core.o(.text)
    USB_OTG_CoreInitDev                      0x08003b85   Thumb Code   522  usb_core.o(.text)
    USB_OTG_GetDeviceSpeed                   0x08003d8f   Thumb Code    52  usb_core.o(.text)
    USB_OTG_EP0Activate                      0x08003dc3   Thumb Code   106  usb_core.o(.text)
    USB_OTG_EPActivate                       0x08003e2d   Thumb Code   152  usb_core.o(.text)
    USB_OTG_EPDeactivate                     0x08003ec5   Thumb Code    94  usb_core.o(.text)
    USB_OTG_EPStartXfer                      0x08003f23   Thumb Code   502  usb_core.o(.text)
    USB_OTG_EP0StartXfer                     0x08004119   Thumb Code   342  usb_core.o(.text)
    USB_OTG_EPSetStall                       0x0800426f   Thumb Code   100  usb_core.o(.text)
    USB_OTG_EPClearStall                     0x080042d3   Thumb Code    80  usb_core.o(.text)
    USB_OTG_ReadDevAllOutEp_itr              0x08004323   Thumb Code    16  usb_core.o(.text)
    USB_OTG_ReadDevOutEP_itr                 0x08004333   Thumb Code    20  usb_core.o(.text)
    USB_OTG_ReadDevAllInEPItr                0x08004347   Thumb Code    16  usb_core.o(.text)
    USB_OTG_EP0_OutStart                     0x08004357   Thumb Code    98  usb_core.o(.text)
    USB_OTG_ActiveRemoteWakeup               0x080043b9   Thumb Code   106  usb_core.o(.text)
    USB_OTG_UngateClock                      0x08004423   Thumb Code    54  usb_core.o(.text)
    USB_OTG_StopDevice                       0x08004459   Thumb Code    82  usb_core.o(.text)
    USB_OTG_GetEPStatus                      0x080044ab   Thumb Code   106  usb_core.o(.text)
    USB_OTG_SetEPStatus                      0x08004515   Thumb Code   282  usb_core.o(.text)
    DCD_Init                                 0x0800462f   Thumb Code   156  usb_dcd.o(.text)
    DCD_EP_Open                              0x080046cb   Thumb Code   104  usb_dcd.o(.text)
    DCD_EP_Close                             0x08004733   Thumb Code    74  usb_dcd.o(.text)
    DCD_EP_PrepareRx                         0x0800477d   Thumb Code    82  usb_dcd.o(.text)
    DCD_EP_Tx                                0x080047cf   Thumb Code    78  usb_dcd.o(.text)
    DCD_EP_Stall                             0x0800481d   Thumb Code    72  usb_dcd.o(.text)
    DCD_EP_ClrStall                          0x08004865   Thumb Code    72  usb_dcd.o(.text)
    DCD_EP_Flush                             0x080048ad   Thumb Code    36  usb_dcd.o(.text)
    DCD_EP_SetAddress                        0x080048d1   Thumb Code    28  usb_dcd.o(.text)
    DCD_DevConnect                           0x080048ed   Thumb Code    32  usb_dcd.o(.text)
    DCD_DevDisconnect                        0x0800490d   Thumb Code    34  usb_dcd.o(.text)
    DCD_GetEPStatus                          0x0800492f   Thumb Code    64  usb_dcd.o(.text)
    DCD_SetEPStatus                          0x0800496f   Thumb Code    62  usb_dcd.o(.text)
    USBD_OTG_ISR_Handler                     0x08005037   Thumb Code   224  usb_dcd_int.o(.text)
    USBD_DeInit                              0x0800511d   Thumb Code     6  usbd_core.o(.text)
    USBD_Init                                0x08005123   Thumb Code    66  usbd_core.o(.text)
    USBD_SetCfg                              0x080053b7   Thumb Code    30  usbd_core.o(.text)
    USBD_ClrCfg                              0x080053d5   Thumb Code    22  usbd_core.o(.text)
    USBD_CtlSendData                         0x08005415   Thumb Code    46  usbd_ioreq.o(.text)
    USBD_CtlContinueSendData                 0x08005443   Thumb Code    30  usbd_ioreq.o(.text)
    USBD_CtlPrepareRx                        0x08005461   Thumb Code    46  usbd_ioreq.o(.text)
    USBD_CtlContinueRx                       0x0800548f   Thumb Code    30  usbd_ioreq.o(.text)
    USBD_CtlSendStatus                       0x080054ad   Thumb Code    36  usbd_ioreq.o(.text)
    USBD_CtlReceiveStatus                    0x080054d1   Thumb Code    36  usbd_ioreq.o(.text)
    USBD_GetRxCount                          0x080054f5   Thumb Code    20  usbd_ioreq.o(.text)
    USBD_CtlError                            0x08005509   Thumb Code    30  usbd_req.o(.text)
    USBD_StdDevReq                           0x080058f1   Thumb Code   114  usbd_req.o(.text)
    USBD_StdItfReq                           0x08005963   Thumb Code    76  usbd_req.o(.text)
    USBD_StdEPReq                            0x080059af   Thumb Code   360  usbd_req.o(.text)
    USBD_ParseSetupRequest                   0x08005b17   Thumb Code    72  usbd_req.o(.text)
    USBD_GetString                           0x08005b73   Thumb Code    82  usbd_req.o(.text)
    NVIC_PriorityGroupConfig                 0x08005bc9   Thumb Code    10  misc.o(.text)
    NVIC_Init                                0x08005bd3   Thumb Code   106  misc.o(.text)
    NVIC_SetVectorTable                      0x08005c3d   Thumb Code    14  misc.o(.text)
    NVIC_SystemLPConfig                      0x08005c4b   Thumb Code    34  misc.o(.text)
    SysTick_CLKSourceConfig                  0x08005c6d   Thumb Code    40  misc.o(.text)
    TIM_DeInit                               0x08005ca9   Thumb Code   346  stm32f4xx_tim.o(.text)
    TIM_TimeBaseInit                         0x08005e03   Thumb Code   104  stm32f4xx_tim.o(.text)
    TIM_TimeBaseStructInit                   0x08005e6b   Thumb Code    18  stm32f4xx_tim.o(.text)
    TIM_PrescalerConfig                      0x08005e7d   Thumb Code     6  stm32f4xx_tim.o(.text)
    TIM_CounterModeConfig                    0x08005e83   Thumb Code    18  stm32f4xx_tim.o(.text)
    TIM_SetCounter                           0x08005e95   Thumb Code     4  stm32f4xx_tim.o(.text)
    TIM_SetAutoreload                        0x08005e99   Thumb Code     4  stm32f4xx_tim.o(.text)
    TIM_GetCounter                           0x08005e9d   Thumb Code     6  stm32f4xx_tim.o(.text)
    TIM_GetPrescaler                         0x08005ea3   Thumb Code     6  stm32f4xx_tim.o(.text)
    TIM_UpdateDisableConfig                  0x08005ea9   Thumb Code    24  stm32f4xx_tim.o(.text)
    TIM_UpdateRequestConfig                  0x08005ec1   Thumb Code    24  stm32f4xx_tim.o(.text)
    TIM_ARRPreloadConfig                     0x08005ed9   Thumb Code    24  stm32f4xx_tim.o(.text)
    TIM_SelectOnePulseMode                   0x08005ef1   Thumb Code    18  stm32f4xx_tim.o(.text)
    TIM_SetClockDivision                     0x08005f03   Thumb Code    18  stm32f4xx_tim.o(.text)
    TIM_Cmd                                  0x08005f15   Thumb Code    24  stm32f4xx_tim.o(.text)
    TIM_OC1Init                              0x08005f2d   Thumb Code   114  stm32f4xx_tim.o(.text)
    TIM_OC2Init                              0x08005f9f   Thumb Code   154  stm32f4xx_tim.o(.text)
    TIM_OC3Init                              0x08006039   Thumb Code   204  stm32f4xx_tim.o(.text)
    TIM_OC4Init                              0x08006105   Thumb Code   112  stm32f4xx_tim.o(.text)
    TIM_OCStructInit                         0x08006175   Thumb Code    20  stm32f4xx_tim.o(.text)
    TIM_SelectOCxM                           0x08006189   Thumb Code    86  stm32f4xx_tim.o(.text)
    TIM_SetCompare1                          0x080061df   Thumb Code     4  stm32f4xx_tim.o(.text)
    TIM_SetCompare2                          0x080061e3   Thumb Code     4  stm32f4xx_tim.o(.text)
    TIM_SetCompare3                          0x080061e7   Thumb Code     4  stm32f4xx_tim.o(.text)
    TIM_SetCompare4                          0x080061eb   Thumb Code     4  stm32f4xx_tim.o(.text)
    TIM_ForcedOC1Config                      0x080061ef   Thumb Code    18  stm32f4xx_tim.o(.text)
    TIM_ForcedOC2Config                      0x08006201   Thumb Code    26  stm32f4xx_tim.o(.text)
    TIM_ForcedOC3Config                      0x0800621b   Thumb Code    18  stm32f4xx_tim.o(.text)
    TIM_ForcedOC4Config                      0x0800622d   Thumb Code    26  stm32f4xx_tim.o(.text)
    TIM_OC1PreloadConfig                     0x08006247   Thumb Code    18  stm32f4xx_tim.o(.text)
    TIM_OC2PreloadConfig                     0x08006259   Thumb Code    26  stm32f4xx_tim.o(.text)
    TIM_OC3PreloadConfig                     0x08006273   Thumb Code    18  stm32f4xx_tim.o(.text)
    TIM_OC4PreloadConfig                     0x08006285   Thumb Code    26  stm32f4xx_tim.o(.text)
    TIM_OC1FastConfig                        0x0800629f   Thumb Code    18  stm32f4xx_tim.o(.text)
    TIM_OC2FastConfig                        0x080062b1   Thumb Code    26  stm32f4xx_tim.o(.text)
    TIM_OC3FastConfig                        0x080062cb   Thumb Code    18  stm32f4xx_tim.o(.text)
    TIM_OC4FastConfig                        0x080062dd   Thumb Code    26  stm32f4xx_tim.o(.text)
    TIM_ClearOC1Ref                          0x080062f7   Thumb Code    18  stm32f4xx_tim.o(.text)
    TIM_ClearOC2Ref                          0x08006309   Thumb Code    24  stm32f4xx_tim.o(.text)
    TIM_ClearOC3Ref                          0x08006321   Thumb Code    18  stm32f4xx_tim.o(.text)
    TIM_ClearOC4Ref                          0x08006333   Thumb Code    24  stm32f4xx_tim.o(.text)
    TIM_OC1PolarityConfig                    0x0800634b   Thumb Code    18  stm32f4xx_tim.o(.text)
    TIM_OC1NPolarityConfig                   0x0800635d   Thumb Code    18  stm32f4xx_tim.o(.text)
    TIM_OC2PolarityConfig                    0x0800636f   Thumb Code    26  stm32f4xx_tim.o(.text)
    TIM_OC2NPolarityConfig                   0x08006389   Thumb Code    26  stm32f4xx_tim.o(.text)
    TIM_OC3PolarityConfig                    0x080063a3   Thumb Code    26  stm32f4xx_tim.o(.text)
    TIM_OC3NPolarityConfig                   0x080063bd   Thumb Code    26  stm32f4xx_tim.o(.text)
    TIM_OC4PolarityConfig                    0x080063d7   Thumb Code    26  stm32f4xx_tim.o(.text)
    TIM_CCxCmd                               0x080063f1   Thumb Code    30  stm32f4xx_tim.o(.text)
    TIM_CCxNCmd                              0x0800640f   Thumb Code    30  stm32f4xx_tim.o(.text)
    TIM_SetIC4Prescaler                      0x0800642d   Thumb Code    26  stm32f4xx_tim.o(.text)
    TIM_SetIC3Prescaler                      0x08006497   Thumb Code    18  stm32f4xx_tim.o(.text)
    TIM_SetIC2Prescaler                      0x080064f1   Thumb Code    26  stm32f4xx_tim.o(.text)
    TIM_SetIC1Prescaler                      0x08006565   Thumb Code    18  stm32f4xx_tim.o(.text)
    TIM_ICInit                               0x080065b1   Thumb Code   110  stm32f4xx_tim.o(.text)
    TIM_ICStructInit                         0x0800661f   Thumb Code    18  stm32f4xx_tim.o(.text)
    TIM_PWMIConfig                           0x08006631   Thumb Code   124  stm32f4xx_tim.o(.text)
    TIM_GetCapture1                          0x080066ad   Thumb Code     6  stm32f4xx_tim.o(.text)
    TIM_GetCapture2                          0x080066b3   Thumb Code     6  stm32f4xx_tim.o(.text)
    TIM_GetCapture3                          0x080066b9   Thumb Code     6  stm32f4xx_tim.o(.text)
    TIM_GetCapture4                          0x080066bf   Thumb Code     6  stm32f4xx_tim.o(.text)
    TIM_BDTRConfig                           0x080066c5   Thumb Code    32  stm32f4xx_tim.o(.text)
    TIM_BDTRStructInit                       0x080066e5   Thumb Code    18  stm32f4xx_tim.o(.text)
    TIM_CtrlPWMOutputs                       0x080066f7   Thumb Code    30  stm32f4xx_tim.o(.text)
    TIM_SelectCOM                            0x08006715   Thumb Code    24  stm32f4xx_tim.o(.text)
    TIM_CCPreloadControl                     0x0800672d   Thumb Code    24  stm32f4xx_tim.o(.text)
    TIM_ITConfig                             0x08006745   Thumb Code    18  stm32f4xx_tim.o(.text)
    TIM_GenerateEvent                        0x08006757   Thumb Code     4  stm32f4xx_tim.o(.text)
    TIM_GetFlagStatus                        0x0800675b   Thumb Code    18  stm32f4xx_tim.o(.text)
    TIM_ClearFlag                            0x0800676d   Thumb Code     6  stm32f4xx_tim.o(.text)
    TIM_GetITStatus                          0x08006773   Thumb Code    34  stm32f4xx_tim.o(.text)
    TIM_ClearITPendingBit                    0x08006795   Thumb Code     6  stm32f4xx_tim.o(.text)
    TIM_DMAConfig                            0x0800679b   Thumb Code    10  stm32f4xx_tim.o(.text)
    TIM_DMACmd                               0x080067a5   Thumb Code    18  stm32f4xx_tim.o(.text)
    TIM_SelectCCDMA                          0x080067b7   Thumb Code    24  stm32f4xx_tim.o(.text)
    TIM_InternalClockConfig                  0x080067cf   Thumb Code    12  stm32f4xx_tim.o(.text)
    TIM_SelectInputTrigger                   0x080067db   Thumb Code    18  stm32f4xx_tim.o(.text)
    TIM_ITRxExternalClockConfig              0x080067ed   Thumb Code    24  stm32f4xx_tim.o(.text)
    TIM_TIxExternalClockConfig               0x08006805   Thumb Code    62  stm32f4xx_tim.o(.text)
    TIM_ETRConfig                            0x08006843   Thumb Code    28  stm32f4xx_tim.o(.text)
    TIM_ETRClockMode1Config                  0x0800685f   Thumb Code    54  stm32f4xx_tim.o(.text)
    TIM_ETRClockMode2Config                  0x08006895   Thumb Code    32  stm32f4xx_tim.o(.text)
    TIM_SelectOutputTrigger                  0x080068b5   Thumb Code    18  stm32f4xx_tim.o(.text)
    TIM_SelectSlaveMode                      0x080068c7   Thumb Code    18  stm32f4xx_tim.o(.text)
    TIM_SelectMasterSlaveMode                0x080068d9   Thumb Code    18  stm32f4xx_tim.o(.text)
    TIM_EncoderInterfaceConfig               0x080068eb   Thumb Code    66  stm32f4xx_tim.o(.text)
    TIM_SelectHallSensor                     0x0800692d   Thumb Code    24  stm32f4xx_tim.o(.text)
    TIM_RemapConfig                          0x08006945   Thumb Code     6  stm32f4xx_tim.o(.text)
    RCC_DeInit                               0x0800694d   Thumb Code    60  stm32f4xx_rcc.o(.text)
    RCC_HSEConfig                            0x08006989   Thumb Code    14  stm32f4xx_rcc.o(.text)
    RCC_GetFlagStatus                        0x08006997   Thumb Code    60  stm32f4xx_rcc.o(.text)
    RCC_WaitForHSEStartUp                    0x080069d3   Thumb Code    56  stm32f4xx_rcc.o(.text)
    RCC_AdjustHSICalibrationValue            0x08006a0b   Thumb Code    20  stm32f4xx_rcc.o(.text)
    RCC_HSICmd                               0x08006a1f   Thumb Code     6  stm32f4xx_rcc.o(.text)
    RCC_LSEConfig                            0x08006a25   Thumb Code    46  stm32f4xx_rcc.o(.text)
    RCC_LSICmd                               0x08006a53   Thumb Code     6  stm32f4xx_rcc.o(.text)
    RCC_PLLConfig                            0x08006a59   Thumb Code    32  stm32f4xx_rcc.o(.text)
    RCC_PLLCmd                               0x08006a79   Thumb Code     6  stm32f4xx_rcc.o(.text)
    RCC_PLLI2SConfig                         0x08006a7f   Thumb Code    14  stm32f4xx_rcc.o(.text)
    RCC_PLLI2SCmd                            0x08006a8d   Thumb Code     6  stm32f4xx_rcc.o(.text)
    RCC_ClockSecuritySystemCmd               0x08006a93   Thumb Code     6  stm32f4xx_rcc.o(.text)
    RCC_MCO1Config                           0x08006a99   Thumb Code    28  stm32f4xx_rcc.o(.text)
    RCC_MCO2Config                           0x08006ab5   Thumb Code    28  stm32f4xx_rcc.o(.text)
    RCC_SYSCLKConfig                         0x08006ad1   Thumb Code    20  stm32f4xx_rcc.o(.text)
    RCC_GetSYSCLKSource                      0x08006ae5   Thumb Code    12  stm32f4xx_rcc.o(.text)
    RCC_HCLKConfig                           0x08006af1   Thumb Code    20  stm32f4xx_rcc.o(.text)
    RCC_PCLK1Config                          0x08006b05   Thumb Code    20  stm32f4xx_rcc.o(.text)
    RCC_PCLK2Config                          0x08006b19   Thumb Code    22  stm32f4xx_rcc.o(.text)
    RCC_GetClocksFreq                        0x08006b2f   Thumb Code   222  stm32f4xx_rcc.o(.text)
    RCC_RTCCLKConfig                         0x08006c0d   Thumb Code    54  stm32f4xx_rcc.o(.text)
    RCC_RTCCLKCmd                            0x08006c43   Thumb Code     8  stm32f4xx_rcc.o(.text)
    RCC_BackupResetCmd                       0x08006c4b   Thumb Code     8  stm32f4xx_rcc.o(.text)
    RCC_I2SCLKConfig                         0x08006c53   Thumb Code     6  stm32f4xx_rcc.o(.text)
    RCC_AHB1PeriphClockCmd                   0x08006c59   Thumb Code    34  stm32f4xx_rcc.o(.text)
    RCC_AHB2PeriphClockCmd                   0x08006c7b   Thumb Code    34  stm32f4xx_rcc.o(.text)
    RCC_AHB3PeriphClockCmd                   0x08006c9d   Thumb Code    34  stm32f4xx_rcc.o(.text)
    RCC_APB1PeriphClockCmd                   0x08006cbf   Thumb Code    34  stm32f4xx_rcc.o(.text)
    RCC_APB2PeriphClockCmd                   0x08006ce1   Thumb Code    34  stm32f4xx_rcc.o(.text)
    RCC_AHB1PeriphResetCmd                   0x08006d03   Thumb Code    34  stm32f4xx_rcc.o(.text)
    RCC_AHB2PeriphResetCmd                   0x08006d25   Thumb Code    72  stm32f4xx_rcc.o(.text)
    RCC_AHB3PeriphResetCmd                   0x08006d6d   Thumb Code    34  stm32f4xx_rcc.o(.text)
    RCC_APB1PeriphResetCmd                   0x08006d8f   Thumb Code    34  stm32f4xx_rcc.o(.text)
    RCC_APB2PeriphResetCmd                   0x08006db1   Thumb Code    34  stm32f4xx_rcc.o(.text)
    RCC_AHB1PeriphClockLPModeCmd             0x08006dd3   Thumb Code    34  stm32f4xx_rcc.o(.text)
    RCC_AHB2PeriphClockLPModeCmd             0x08006df5   Thumb Code    34  stm32f4xx_rcc.o(.text)
    RCC_AHB3PeriphClockLPModeCmd             0x08006e17   Thumb Code    34  stm32f4xx_rcc.o(.text)
    RCC_APB1PeriphClockLPModeCmd             0x08006e39   Thumb Code    34  stm32f4xx_rcc.o(.text)
    RCC_APB2PeriphClockLPModeCmd             0x08006e5b   Thumb Code    34  stm32f4xx_rcc.o(.text)
    RCC_ITConfig                             0x08006e7d   Thumb Code    34  stm32f4xx_rcc.o(.text)
    RCC_ClearFlag                            0x08006e9f   Thumb Code    18  stm32f4xx_rcc.o(.text)
    RCC_GetITStatus                          0x08006eb1   Thumb Code    22  stm32f4xx_rcc.o(.text)
    RCC_ClearITPendingBit                    0x08006ec7   Thumb Code     8  stm32f4xx_rcc.o(.text)
    EXTI_DeInit                              0x08006ed5   Thumb Code    28  stm32f4xx_exti.o(.text)
    EXTI_Init                                0x08006ef1   Thumb Code   142  stm32f4xx_exti.o(.text)
    EXTI_StructInit                          0x08006f7f   Thumb Code    16  stm32f4xx_exti.o(.text)
    EXTI_GenerateSWInterrupt                 0x08006f8f   Thumb Code    16  stm32f4xx_exti.o(.text)
    EXTI_GetFlagStatus                       0x08006f9f   Thumb Code    22  stm32f4xx_exti.o(.text)
    EXTI_ClearFlag                           0x08006fb5   Thumb Code     8  stm32f4xx_exti.o(.text)
    EXTI_GetITStatus                         0x08006fbd   Thumb Code    34  stm32f4xx_exti.o(.text)
    EXTI_ClearITPendingBit                   0x08006fdf   Thumb Code     8  stm32f4xx_exti.o(.text)
    GPIO_DeInit                              0x08006ff1   Thumb Code   220  stm32f4xx_gpio.o(.text)
    GPIO_Init                                0x080070cd   Thumb Code   144  stm32f4xx_gpio.o(.text)
    GPIO_StructInit                          0x0800715d   Thumb Code    18  stm32f4xx_gpio.o(.text)
    GPIO_PinLockConfig                       0x0800716f   Thumb Code    34  stm32f4xx_gpio.o(.text)
    GPIO_ReadInputDataBit                    0x08007191   Thumb Code    18  stm32f4xx_gpio.o(.text)
    GPIO_ReadInputData                       0x080071a3   Thumb Code     8  stm32f4xx_gpio.o(.text)
    GPIO_ReadOutputDataBit                   0x080071ab   Thumb Code    18  stm32f4xx_gpio.o(.text)
    GPIO_ReadOutputData                      0x080071bd   Thumb Code     8  stm32f4xx_gpio.o(.text)
    GPIO_SetBits                             0x080071c5   Thumb Code     4  stm32f4xx_gpio.o(.text)
    GPIO_ResetBits                           0x080071c9   Thumb Code     4  stm32f4xx_gpio.o(.text)
    GPIO_WriteBit                            0x080071cd   Thumb Code    10  stm32f4xx_gpio.o(.text)
    GPIO_Write                               0x080071d7   Thumb Code     4  stm32f4xx_gpio.o(.text)
    GPIO_ToggleBits                          0x080071db   Thumb Code     8  stm32f4xx_gpio.o(.text)
    GPIO_PinAFConfig                         0x080071e3   Thumb Code    70  stm32f4xx_gpio.o(.text)
    DMA_DeInit                               0x0800724d   Thumb Code   324  stm32f4xx_dma.o(.text)
    DMA_Init                                 0x08007391   Thumb Code    82  stm32f4xx_dma.o(.text)
    DMA_StructInit                           0x080073e3   Thumb Code    34  stm32f4xx_dma.o(.text)
    DMA_Cmd                                  0x08007405   Thumb Code    22  stm32f4xx_dma.o(.text)
    DMA_PeriphIncOffsetSizeConfig            0x0800741b   Thumb Code    22  stm32f4xx_dma.o(.text)
    DMA_FlowControllerConfig                 0x08007431   Thumb Code    22  stm32f4xx_dma.o(.text)
    DMA_SetCurrDataCounter                   0x08007447   Thumb Code     4  stm32f4xx_dma.o(.text)
    DMA_GetCurrDataCounter                   0x0800744b   Thumb Code     8  stm32f4xx_dma.o(.text)
    DMA_DoubleBufferModeConfig               0x08007453   Thumb Code    24  stm32f4xx_dma.o(.text)
    DMA_DoubleBufferModeCmd                  0x0800746b   Thumb Code    22  stm32f4xx_dma.o(.text)
    DMA_MemoryTargetConfig                   0x08007481   Thumb Code    10  stm32f4xx_dma.o(.text)
    DMA_GetCurrentMemoryTarget               0x0800748b   Thumb Code    20  stm32f4xx_dma.o(.text)
    DMA_GetCmdStatus                         0x0800749f   Thumb Code    20  stm32f4xx_dma.o(.text)
    DMA_GetFIFOStatus                        0x080074b3   Thumb Code    12  stm32f4xx_dma.o(.text)
    DMA_GetFlagStatus                        0x080074bf   Thumb Code    56  stm32f4xx_dma.o(.text)
    DMA_ClearFlag                            0x080074f7   Thumb Code    40  stm32f4xx_dma.o(.text)
    DMA_ITConfig                             0x0800751f   Thumb Code    58  stm32f4xx_dma.o(.text)
    DMA_GetITStatus                          0x08007559   Thumb Code    84  stm32f4xx_dma.o(.text)
    DMA_ClearITPendingBit                    0x080075ad   Thumb Code    40  stm32f4xx_dma.o(.text)
    USART_DeInit                             0x080075f5   Thumb Code   156  stm32f4xx_usart.o(.text)
    USART_Init                               0x08007691   Thumb Code   204  stm32f4xx_usart.o(.text)
    USART_StructInit                         0x0800775d   Thumb Code    24  stm32f4xx_usart.o(.text)
    USART_ClockInit                          0x08007775   Thumb Code    32  stm32f4xx_usart.o(.text)
    USART_ClockStructInit                    0x08007795   Thumb Code    12  stm32f4xx_usart.o(.text)
    USART_Cmd                                0x080077a1   Thumb Code    24  stm32f4xx_usart.o(.text)
    USART_SetPrescaler                       0x080077b9   Thumb Code    16  stm32f4xx_usart.o(.text)
    USART_OverSampling8Cmd                   0x080077c9   Thumb Code    22  stm32f4xx_usart.o(.text)
    USART_OneBitMethodCmd                    0x080077df   Thumb Code    24  stm32f4xx_usart.o(.text)
    USART_SendData                           0x080077f7   Thumb Code     8  stm32f4xx_usart.o(.text)
    USART_ReceiveData                        0x080077ff   Thumb Code    10  stm32f4xx_usart.o(.text)
    USART_SetAddress                         0x08007809   Thumb Code    18  stm32f4xx_usart.o(.text)
    USART_ReceiverWakeUpCmd                  0x0800781b   Thumb Code    24  stm32f4xx_usart.o(.text)
    USART_WakeUpConfig                       0x08007833   Thumb Code    18  stm32f4xx_usart.o(.text)
    USART_LINBreakDetectLengthConfig         0x08007845   Thumb Code    18  stm32f4xx_usart.o(.text)
    USART_LINCmd                             0x08007857   Thumb Code    24  stm32f4xx_usart.o(.text)
    USART_SendBreak                          0x0800786f   Thumb Code    10  stm32f4xx_usart.o(.text)
    USART_HalfDuplexCmd                      0x08007879   Thumb Code    24  stm32f4xx_usart.o(.text)
    USART_SetGuardTime                       0x08007891   Thumb Code    16  stm32f4xx_usart.o(.text)
    USART_SmartCardCmd                       0x080078a1   Thumb Code    24  stm32f4xx_usart.o(.text)
    USART_SmartCardNACKCmd                   0x080078b9   Thumb Code    24  stm32f4xx_usart.o(.text)
    USART_IrDAConfig                         0x080078d1   Thumb Code    18  stm32f4xx_usart.o(.text)
    USART_IrDACmd                            0x080078e3   Thumb Code    24  stm32f4xx_usart.o(.text)
    USART_DMACmd                             0x080078fb   Thumb Code    18  stm32f4xx_usart.o(.text)
    USART_ITConfig                           0x0800790d   Thumb Code    74  stm32f4xx_usart.o(.text)
    USART_GetFlagStatus                      0x08007957   Thumb Code    26  stm32f4xx_usart.o(.text)
    USART_ClearFlag                          0x08007971   Thumb Code    18  stm32f4xx_usart.o(.text)
    USART_GetITStatus                        0x08007983   Thumb Code   110  stm32f4xx_usart.o(.text)
    USART_ClearITPendingBit                  0x080079f1   Thumb Code    30  stm32f4xx_usart.o(.text)
    PWR_DeInit                               0x08007a11   Thumb Code    22  stm32f4xx_pwr.o(.text)
    PWR_BackupAccessCmd                      0x08007a27   Thumb Code     6  stm32f4xx_pwr.o(.text)
    PWR_PVDLevelConfig                       0x08007a2d   Thumb Code    18  stm32f4xx_pwr.o(.text)
    PWR_PVDCmd                               0x08007a3f   Thumb Code     6  stm32f4xx_pwr.o(.text)
    PWR_WakeUpPinCmd                         0x08007a45   Thumb Code     8  stm32f4xx_pwr.o(.text)
    PWR_BackupRegulatorCmd                   0x08007a4d   Thumb Code     8  stm32f4xx_pwr.o(.text)
    PWR_MainRegulatorModeConfig              0x08007a55   Thumb Code    30  stm32f4xx_pwr.o(.text)
    PWR_FlashPowerDownCmd                    0x08007a73   Thumb Code     6  stm32f4xx_pwr.o(.text)
    PWR_EnterSTOPMode                        0x08007a79   Thumb Code    54  stm32f4xx_pwr.o(.text)
    PWR_EnterSTANDBYMode                     0x08007aaf   Thumb Code    42  stm32f4xx_pwr.o(.text)
    PWR_GetFlagStatus                        0x08007ad9   Thumb Code    20  stm32f4xx_pwr.o(.text)
    PWR_ClearFlag                            0x08007aed   Thumb Code    14  stm32f4xx_pwr.o(.text)
    RTC_WaitForSynchro                       0x08007b09   Thumb Code    92  stm32f4xx_rtc.o(.text)
    RTC_EnterInitMode                        0x08007b65   Thumb Code    84  stm32f4xx_rtc.o(.text)
    RTC_DeInit                               0x08007bb9   Thumb Code   204  stm32f4xx_rtc.o(.text)
    RTC_ExitInitMode                         0x08007c85   Thumb Code    18  stm32f4xx_rtc.o(.text)
    RTC_Init                                 0x08007c97   Thumb Code    94  stm32f4xx_rtc.o(.text)
    RTC_StructInit                           0x08007cf5   Thumb Code    14  stm32f4xx_rtc.o(.text)
    RTC_WriteProtectionCmd                   0x08007d03   Thumb Code    22  stm32f4xx_rtc.o(.text)
    RTC_RefClockCmd                          0x08007d19   Thumb Code    76  stm32f4xx_rtc.o(.text)
    RTC_BypassShadowCmd                      0x08007d65   Thumb Code    54  stm32f4xx_rtc.o(.text)
    RTC_SetTime                              0x08007dcd   Thumb Code   200  stm32f4xx_rtc.o(.text)
    RTC_TimeStructInit                       0x08007e95   Thumb Code    12  stm32f4xx_rtc.o(.text)
    RTC_GetTime                              0x08007ea1   Thumb Code    74  stm32f4xx_rtc.o(.text)
    RTC_GetSubSecond                         0x08007eeb   Thumb Code    30  stm32f4xx_rtc.o(.text)
    RTC_SetDate                              0x08007f09   Thumb Code   190  stm32f4xx_rtc.o(.text)
    RTC_DateStructInit                       0x08007fc7   Thumb Code    14  stm32f4xx_rtc.o(.text)
    RTC_GetDate                              0x08007fd5   Thumb Code    70  stm32f4xx_rtc.o(.text)
    RTC_SetAlarm                             0x0800801b   Thumb Code   230  stm32f4xx_rtc.o(.text)
    RTC_AlarmStructInit                      0x08008101   Thumb Code    22  stm32f4xx_rtc.o(.text)
    RTC_GetAlarm                             0x08008117   Thumb Code   114  stm32f4xx_rtc.o(.text)
    RTC_AlarmCmd                             0x08008189   Thumb Code   112  stm32f4xx_rtc.o(.text)
    RTC_AlarmSubSecondConfig                 0x080081f9   Thumb Code    46  stm32f4xx_rtc.o(.text)
    RTC_GetAlarmSubSecond                    0x08008227   Thumb Code    34  stm32f4xx_rtc.o(.text)
    RTC_WakeUpClockConfig                    0x08008249   Thumb Code    42  stm32f4xx_rtc.o(.text)
    RTC_SetWakeUpCounter                     0x08008273   Thumb Code    22  stm32f4xx_rtc.o(.text)
    RTC_GetWakeUpCounter                     0x08008289   Thumb Code    10  stm32f4xx_rtc.o(.text)
    RTC_WakeUpCmd                            0x08008293   Thumb Code   116  stm32f4xx_rtc.o(.text)
    RTC_DayLightSavingConfig                 0x08008307   Thumb Code    50  stm32f4xx_rtc.o(.text)
    RTC_GetStoreOperation                    0x08008339   Thumb Code    12  stm32f4xx_rtc.o(.text)
    RTC_OutputConfig                         0x08008345   Thumb Code    60  stm32f4xx_rtc.o(.text)
    RTC_CoarseCalibConfig                    0x08008381   Thumb Code    52  stm32f4xx_rtc.o(.text)
    RTC_CoarseCalibCmd                       0x080083b5   Thumb Code    76  stm32f4xx_rtc.o(.text)
    RTC_CalibOutputCmd                       0x08008401   Thumb Code    54  stm32f4xx_rtc.o(.text)
    RTC_CalibOutputConfig                    0x08008437   Thumb Code    42  stm32f4xx_rtc.o(.text)
    RTC_SmoothCalibConfig                    0x08008461   Thumb Code    90  stm32f4xx_rtc.o(.text)
    RTC_TimeStampCmd                         0x080084bb   Thumb Code    54  stm32f4xx_rtc.o(.text)
    RTC_GetTimeStamp                         0x080084f1   Thumb Code   144  stm32f4xx_rtc.o(.text)
    RTC_GetTimeStampSubSecond                0x08008581   Thumb Code     8  stm32f4xx_rtc.o(.text)
    RTC_TamperTriggerConfig                  0x08008589   Thumb Code    38  stm32f4xx_rtc.o(.text)
    RTC_TamperCmd                            0x080085af   Thumb Code    34  stm32f4xx_rtc.o(.text)
    RTC_TamperFilterConfig                   0x080085d1   Thumb Code    26  stm32f4xx_rtc.o(.text)
    RTC_TamperSamplingFreqConfig             0x080085eb   Thumb Code    26  stm32f4xx_rtc.o(.text)
    RTC_TamperPinsPrechargeDuration          0x08008605   Thumb Code    26  stm32f4xx_rtc.o(.text)
    RTC_TimeStampOnTamperDetectionCmd        0x0800861f   Thumb Code    38  stm32f4xx_rtc.o(.text)
    RTC_TamperPullUpCmd                      0x08008645   Thumb Code    38  stm32f4xx_rtc.o(.text)
    RTC_WriteBackupRegister                  0x0800866b   Thumb Code    26  stm32f4xx_rtc.o(.text)
    RTC_ReadBackupRegister                   0x08008685   Thumb Code    28  stm32f4xx_rtc.o(.text)
    RTC_TamperPinSelection                   0x080086a1   Thumb Code    26  stm32f4xx_rtc.o(.text)
    RTC_TimeStampPinSelection                0x080086bb   Thumb Code    26  stm32f4xx_rtc.o(.text)
    RTC_OutputTypeConfig                     0x080086d5   Thumb Code    26  stm32f4xx_rtc.o(.text)
    RTC_SynchroShiftConfig                   0x080086ef   Thumb Code   130  stm32f4xx_rtc.o(.text)
    RTC_ITConfig                             0x08008771   Thumb Code    94  stm32f4xx_rtc.o(.text)
    RTC_GetFlagStatus                        0x080087cf   Thumb Code    34  stm32f4xx_rtc.o(.text)
    RTC_ClearFlag                            0x080087f1   Thumb Code    28  stm32f4xx_rtc.o(.text)
    RTC_GetITStatus                          0x0800880d   Thumb Code    60  stm32f4xx_rtc.o(.text)
    RTC_ClearITPendingBit                    0x08008849   Thumb Code    32  stm32f4xx_rtc.o(.text)
    SDIO_DeInit                              0x08008871   Thumb Code    22  stm32f4xx_sdio.o(.text)
    SDIO_Init                                0x08008887   Thumb Code    42  stm32f4xx_sdio.o(.text)
    SDIO_StructInit                          0x080088b1   Thumb Code    16  stm32f4xx_sdio.o(.text)
    SDIO_ClockCmd                            0x080088c1   Thumb Code     6  stm32f4xx_sdio.o(.text)
    SDIO_SetPowerState                       0x080088c7   Thumb Code     8  stm32f4xx_sdio.o(.text)
    SDIO_GetPowerState                       0x080088cf   Thumb Code    12  stm32f4xx_sdio.o(.text)
    SDIO_SendCommand                         0x080088db   Thumb Code    42  stm32f4xx_sdio.o(.text)
    SDIO_CmdStructInit                       0x08008905   Thumb Code    14  stm32f4xx_sdio.o(.text)
    SDIO_GetCommandResponse                  0x08008913   Thumb Code    10  stm32f4xx_sdio.o(.text)
    SDIO_GetResponse                         0x0800891d   Thumb Code    22  stm32f4xx_sdio.o(.text)
    SDIO_DataConfig                          0x08008933   Thumb Code    48  stm32f4xx_sdio.o(.text)
    SDIO_DataStructInit                      0x08008963   Thumb Code    20  stm32f4xx_sdio.o(.text)
    SDIO_GetDataCounter                      0x08008977   Thumb Code     8  stm32f4xx_sdio.o(.text)
    SDIO_ReadData                            0x0800897f   Thumb Code     8  stm32f4xx_sdio.o(.text)
    SDIO_WriteData                           0x08008987   Thumb Code     8  stm32f4xx_sdio.o(.text)
    SDIO_GetFIFOCount                        0x0800898f   Thumb Code     8  stm32f4xx_sdio.o(.text)
    SDIO_StartSDIOReadWait                   0x08008997   Thumb Code     6  stm32f4xx_sdio.o(.text)
    SDIO_StopSDIOReadWait                    0x0800899d   Thumb Code     8  stm32f4xx_sdio.o(.text)
    SDIO_SetSDIOReadWaitMode                 0x080089a5   Thumb Code     8  stm32f4xx_sdio.o(.text)
    SDIO_SetSDIOOperation                    0x080089ad   Thumb Code     8  stm32f4xx_sdio.o(.text)
    SDIO_SendSDIOSuspendCmd                  0x080089b5   Thumb Code     6  stm32f4xx_sdio.o(.text)
    SDIO_CommandCompletionCmd                0x080089bb   Thumb Code     8  stm32f4xx_sdio.o(.text)
    SDIO_CEATAITCmd                          0x080089c3   Thumb Code    12  stm32f4xx_sdio.o(.text)
    SDIO_SendCEATACmd                        0x080089cf   Thumb Code     8  stm32f4xx_sdio.o(.text)
    SDIO_DMACmd                              0x080089d7   Thumb Code     8  stm32f4xx_sdio.o(.text)
    SDIO_ITConfig                            0x080089df   Thumb Code    34  stm32f4xx_sdio.o(.text)
    SDIO_GetFlagStatus                       0x08008a01   Thumb Code    22  stm32f4xx_sdio.o(.text)
    SDIO_ClearFlag                           0x08008a17   Thumb Code     8  stm32f4xx_sdio.o(.text)
    SDIO_GetITStatus                         0x08008a1f   Thumb Code    22  stm32f4xx_sdio.o(.text)
    SDIO_ClearITPendingBit                   0x08008a35   Thumb Code     8  stm32f4xx_sdio.o(.text)
    SPI_I2S_DeInit                           0x08008a4d   Thumb Code    76  stm32f4xx_spi.o(.text)
    SPI_Init                                 0x08008a99   Thumb Code    60  stm32f4xx_spi.o(.text)
    I2S_Init                                 0x08008ad5   Thumb Code   350  stm32f4xx_spi.o(.text)
    SPI_StructInit                           0x08008c33   Thumb Code    24  stm32f4xx_spi.o(.text)
    I2S_StructInit                           0x08008c4b   Thumb Code    20  stm32f4xx_spi.o(.text)
    SPI_Cmd                                  0x08008c5f   Thumb Code    24  stm32f4xx_spi.o(.text)
    I2S_Cmd                                  0x08008c77   Thumb Code    24  stm32f4xx_spi.o(.text)
    SPI_DataSizeConfig                       0x08008c8f   Thumb Code    18  stm32f4xx_spi.o(.text)
    SPI_BiDirectionalLineConfig              0x08008ca1   Thumb Code    28  stm32f4xx_spi.o(.text)
    SPI_NSSInternalSoftwareConfig            0x08008cbd   Thumb Code    30  stm32f4xx_spi.o(.text)
    SPI_SSOutputCmd                          0x08008cdb   Thumb Code    24  stm32f4xx_spi.o(.text)
    SPI_TIModeCmd                            0x08008cf3   Thumb Code    24  stm32f4xx_spi.o(.text)
    I2S_FullDuplexConfig                     0x08008d0b   Thumb Code    80  stm32f4xx_spi.o(.text)
    SPI_I2S_ReceiveData                      0x08008d5b   Thumb Code     6  stm32f4xx_spi.o(.text)
    SPI_I2S_SendData                         0x08008d61   Thumb Code     4  stm32f4xx_spi.o(.text)
    SPI_CalculateCRC                         0x08008d65   Thumb Code    24  stm32f4xx_spi.o(.text)
    SPI_TransmitCRC                          0x08008d7d   Thumb Code    10  stm32f4xx_spi.o(.text)
    SPI_GetCRC                               0x08008d87   Thumb Code    16  stm32f4xx_spi.o(.text)
    SPI_GetCRCPolynomial                     0x08008d97   Thumb Code     6  stm32f4xx_spi.o(.text)
    SPI_I2S_DMACmd                           0x08008d9d   Thumb Code    18  stm32f4xx_spi.o(.text)
    SPI_I2S_ITConfig                         0x08008daf   Thumb Code    32  stm32f4xx_spi.o(.text)
    SPI_I2S_GetFlagStatus                    0x08008dcf   Thumb Code    18  stm32f4xx_spi.o(.text)
    SPI_I2S_ClearFlag                        0x08008de1   Thumb Code     6  stm32f4xx_spi.o(.text)
    SPI_I2S_GetITStatus                      0x08008de7   Thumb Code    52  stm32f4xx_spi.o(.text)
    SPI_I2S_ClearITPendingBit                0x08008e1b   Thumb Code    42  stm32f4xx_spi.o(.text)
    __aeabi_uldivmod                         0x08008e45   Thumb Code    98  uldiv.o(.text)
    __aeabi_memcpy                           0x08008ea7   Thumb Code    36  memcpya.o(.text)
    __aeabi_memcpy4                          0x08008ea7   Thumb Code     0  memcpya.o(.text)
    __aeabi_memcpy8                          0x08008ea7   Thumb Code     0  memcpya.o(.text)
    __aeabi_uidiv                            0x08008ecb   Thumb Code     0  uidiv.o(.text)
    __aeabi_uidivmod                         0x08008ecb   Thumb Code    44  uidiv.o(.text)
    __aeabi_llsl                             0x08008ef7   Thumb Code    30  llshl.o(.text)
    _ll_shift_l                              0x08008ef7   Thumb Code     0  llshl.o(.text)
    __aeabi_llsr                             0x08008f15   Thumb Code    32  llushr.o(.text)
    _ll_ushift_r                             0x08008f15   Thumb Code     0  llushr.o(.text)
    __I$use$fp                               0x08008f35   Thumb Code     0  iusefp.o(.text)
    __aeabi_dadd                             0x08008f35   Thumb Code   322  dadd.o(.text)
    __aeabi_dsub                             0x08009077   Thumb Code     6  dadd.o(.text)
    __aeabi_drsub                            0x0800907d   Thumb Code     6  dadd.o(.text)
    __aeabi_dmul                             0x08009083   Thumb Code   228  dmul.o(.text)
    __aeabi_ddiv                             0x08009167   Thumb Code   222  ddiv.o(.text)
    __aeabi_d2ulz                            0x08009245   Thumb Code    48  dfixul.o(.text)
    __aeabi_cdrcmple                         0x08009275   Thumb Code    48  cdrcmple.o(.text)
    __scatterload                            0x080092a5   Thumb Code    28  init.o(.text)
    __scatterload_rt2                        0x080092a5   Thumb Code     0  init.o(.text)
    __aeabi_lasr                             0x080092c9   Thumb Code    36  llsshr.o(.text)
    _ll_sshift_r                             0x080092c9   Thumb Code     0  llsshr.o(.text)
    _double_round                            0x080092ed   Thumb Code    30  depilogue.o(.text)
    _double_epilogue                         0x0800930b   Thumb Code   156  depilogue.o(.text)
    __0printf$1                              0x080093a9   Thumb Code    22  printf1.o(i.__0printf$1)
    __1printf$1                              0x080093a9   Thumb Code     0  printf1.o(i.__0printf$1)
    __2printf                                0x080093a9   Thumb Code     0  printf1.o(i.__0printf$1)
    __0vsnprintf                             0x080093c9   Thumb Code    40  printfa.o(i.__0vsnprintf)
    __1vsnprintf                             0x080093c9   Thumb Code     0  printfa.o(i.__0vsnprintf)
    __2vsnprintf                             0x080093c9   Thumb Code     0  printfa.o(i.__0vsnprintf)
    __c89vsnprintf                           0x080093c9   Thumb Code     0  printfa.o(i.__0vsnprintf)
    vsnprintf                                0x080093c9   Thumb Code     0  printfa.o(i.__0vsnprintf)
    __scatterload_copy                       0x080093f5   Thumb Code    14  handlers.o(i.__scatterload_copy)
    __scatterload_null                       0x08009403   Thumb Code     2  handlers.o(i.__scatterload_null)
    __scatterload_zeroinit                   0x08009405   Thumb Code    14  handlers.o(i.__scatterload_zeroinit)
    Region$$Table$$Base                      0x08009e7c   Number         0  anon$$obj.o(Region$$Table)
    Region$$Table$$Limit                     0x08009e9c   Number         0  anon$$obj.o(Region$$Table)
    res                                      0x20000000   Data           1  app.o(.data)
    USB_STA                                  0x20000001   Data           1  app.o(.data)
    Divece_STA                               0x20000002   Data           1  app.o(.data)
    tct                                      0x20000003   Data           1  app.o(.data)
    offline_cnt                              0x20000004   Data           1  app.o(.data)
    RTC_TimeStruct                           0x20000005   Data           4  app.o(.data)
    RTC_DateStruct                           0x20000009   Data           4  app.o(.data)
    FLASH_SIZE                               0x2000000d   Data           1  app.o(.data)
    can_data                                 0x2000000e   Data           8  app.o(.data)
    atc512data                               0x20000016   Data           1  app.o(.data)
    iic_delay_para                           0x20000018   Data           4  iic.o(.data)
    iic_frequency                            0x2000001c   Data           4  iic.o(.data)
    iic_scl_port                             0x20000020   Data           2  iic.o(.data)
    iic_sda_port                             0x20000022   Data           2  iic.o(.data)
    iic_scl_group                            0x20000024   Data           4  iic.o(.data)
    iic_sda_group                            0x20000028   Data           4  iic.o(.data)
    StopCondition                            0x20000034   Data           4  sdio.o(.data)
    TransferError                            0x20000038   Data           1  sdio.o(.data)
    TransferEnd                              0x2000003c   Data           4  sdio.o(.data)
    DMAEndOfTransfer                         0x20000040   Data           4  sdio.o(.data)
    w25qxx_type                              0x20000074   Data           2  w25qxx.o(.data)
    SystemCoreClock                          0x20000078   Data           4  system_stm32f4xx.o(.data)
    AHBPrescTable                            0x2000007c   Data          16  system_stm32f4xx.o(.data)
    bDeviceState                             0x2000008c   Data           1  usbd_usr.o(.data)
    USR_cb                                   0x20000090   Data          28  usbd_usr.o(.data)
    SET_TEST_MODE                            0x200000ac   Data           4  usbd_core.o(.data)
    USBD_DCD_INT_cb                          0x200000b0   Data          44  usbd_core.o(.data)
    USBD_DCD_INT_fops                        0x200000dc   Data           4  usbd_core.o(.data)
    USBD_ep_status                           0x200000e0   Data           4  usbd_req.o(.data)
    USBD_default_cfg                         0x200000e4   Data           4  usbd_req.o(.data)
    USBD_cfg_status                          0x200000e8   Data           4  usbd_req.o(.data)
    __stdout                                 0x20000100   Data           4  stdout.o(.data)
    fs                                       0x20000104   Data         560  app.o(.bss)
    USB_OTG_dev                              0x20000334   Data        1524  app.o(.bss)
    tbuf                                     0x20000928   Data          40  app.o(.bss)
    datatemp                                 0x20000950   Data          48  app.o(.bss)
    SDCardInfo                               0x200009b0   Data          88  sdio.o(.bss)
    SDIO_DATA_BUFFER                         0x20000a08   Data         512  sdio.o(.bss)
    SDIO_InitStructure                       0x20000c08   Data          24  sdio.o(.bss)
    SDIO_CmdInitStructure                    0x20000c20   Data          20  sdio.o(.bss)
    SDIO_DataInitStructure                   0x20000c34   Data          24  sdio.o(.bss)
    W25QXX_BUFFER                            0x20000c4c   Data        4096  w25qxx.o(.bss)
    __initial_sp                             0x20002050   Data           0  startup_stm32f4xx.o(STACK)



==============================================================================

Memory Map of the image

  Image Entry point : 0x08000189

  Load Region LR_IROM1 (Base: 0x08000000, Size: 0x00009fa0, Max: 0x00080000, ABSOLUTE)

    Execution Region ER_IROM1 (Exec base: 0x08000000, Load base: 0x08000000, Size: 0x00009e9c, Max: 0x00080000, ABSOLUTE)

    Exec Addr    Load Addr    Size         Type   Attr      Idx    E Section Name        Object

    0x08000000   0x08000000   0x00000188   Data   RO            3    RESET               startup_stm32f4xx.o
    0x08000188   0x08000188   0x00000000   Code   RO         1459  * .ARM.Collect$$$$00000000  mc_w.l(entry.o)
    0x08000188   0x08000188   0x00000004   Code   RO         1729    .ARM.Collect$$$$00000001  mc_w.l(entry2.o)
    0x0800018c   0x0800018c   0x00000004   Code   RO         1732    .ARM.Collect$$$$00000004  mc_w.l(entry5.o)
    0x08000190   0x08000190   0x00000000   Code   RO         1734    .ARM.Collect$$$$00000008  mc_w.l(entry7b.o)
    0x08000190   0x08000190   0x00000000   Code   RO         1736    .ARM.Collect$$$$0000000A  mc_w.l(entry8b.o)
    0x08000190   0x08000190   0x00000008   Code   RO         1737    .ARM.Collect$$$$0000000B  mc_w.l(entry9a.o)
    0x08000198   0x08000198   0x00000000   Code   RO         1739    .ARM.Collect$$$$0000000D  mc_w.l(entry10a.o)
    0x08000198   0x08000198   0x00000000   Code   RO         1741    .ARM.Collect$$$$0000000F  mc_w.l(entry11a.o)
    0x08000198   0x08000198   0x00000004   Code   RO         1730    .ARM.Collect$$$$00002712  mc_w.l(entry2.o)
    0x0800019c   0x0800019c   0x00000024   Code   RO            4    .text               startup_stm32f4xx.o
    0x080001c0   0x080001c0   0x000000a8   Code   RO           13    .text               app.o
    0x08000268   0x08000268   0x00000058   Code   RO          234    .text               bsp.o
    0x080002c0   0x080002c0   0x000001a4   Code   RO          258    .text               usart.o
    0x08000464   0x08000464   0x0000045a   Code   RO          289    .text               iic.o
    0x080008be   0x080008be   0x00000002   PAD
    0x080008c0   0x080008c0   0x000001d8   Code   RO          343    .text               spi.o
    0x08000a98   0x08000a98   0x0000022c   Code   RO          367    .text               rtc.o
    0x08000cc4   0x08000cc4   0x00001b64   Code   RO          391    .text               sdio.o
    0x08002828   0x08002828   0x0000033c   Code   RO          422    .text               led.o
    0x08002b64   0x08002b64   0x000000b0   Code   RO          449    .text               beep.o
    0x08002c14   0x08002c14   0x000000b0   Code   RO          476    .text               relay.o
    0x08002cc4   0x08002cc4   0x00000464   Code   RO          503    .text               w25qxx.o
    0x08003128   0x08003128   0x000000fa   Code   RO          553    .text               24cxx.o
    0x08003222   0x08003222   0x00000002   PAD
    0x08003224   0x08003224   0x00000210   Code   RO          648    .text               system_stm32f4xx.o
    0x08003434   0x08003434   0x000000bc   Code   RO          697    .text               usb_bsp.o
    0x080034f0   0x080034f0   0x00000168   Code   RO          792    .text               usbd_usr.o
    0x08003658   0x08003658   0x00000fd6   Code   RO          835    .text               usb_core.o
    0x0800462e   0x0800462e   0x0000037e   Code   RO          859    .text               usb_dcd.o
    0x080049ac   0x080049ac   0x00000770   Code   RO          883    .text               usb_dcd_int.o
    0x0800511c   0x0800511c   0x000002f8   Code   RO          907    .text               usbd_core.o
    0x08005414   0x08005414   0x000000f4   Code   RO          937    .text               usbd_ioreq.o
    0x08005508   0x08005508   0x000006c0   Code   RO          961    .text               usbd_req.o
    0x08005bc8   0x08005bc8   0x000000e0   Code   RO         1128    .text               stm32f4xx.lib(misc.o)
    0x08005ca8   0x08005ca8   0x00000ca2   Code   RO         1211    .text               stm32f4xx.lib(stm32f4xx_tim.o)
    0x0800694a   0x0800694a   0x00000002   PAD
    0x0800694c   0x0800694c   0x00000588   Code   RO         1235    .text               stm32f4xx.lib(stm32f4xx_rcc.o)
    0x08006ed4   0x08006ed4   0x0000011c   Code   RO         1261    .text               stm32f4xx.lib(stm32f4xx_exti.o)
    0x08006ff0   0x08006ff0   0x0000025c   Code   RO         1285    .text               stm32f4xx.lib(stm32f4xx_gpio.o)
    0x0800724c   0x0800724c   0x000003a8   Code   RO         1309    .text               stm32f4xx.lib(stm32f4xx_dma.o)
    0x080075f4   0x080075f4   0x0000041a   Code   RO         1333    .text               stm32f4xx.lib(stm32f4xx_usart.o)
    0x08007a0e   0x08007a0e   0x00000002   PAD
    0x08007a10   0x08007a10   0x000000f8   Code   RO         1357    .text               stm32f4xx.lib(stm32f4xx_pwr.o)
    0x08007b08   0x08007b08   0x00000d68   Code   RO         1381    .text               stm32f4xx.lib(stm32f4xx_rtc.o)
    0x08008870   0x08008870   0x000001dc   Code   RO         1408    .text               stm32f4xx.lib(stm32f4xx_sdio.o)
    0x08008a4c   0x08008a4c   0x000003f8   Code   RO         1435    .text               stm32f4xx.lib(stm32f4xx_spi.o)
    0x08008e44   0x08008e44   0x00000062   Code   RO         1462    .text               mc_w.l(uldiv.o)
    0x08008ea6   0x08008ea6   0x00000024   Code   RO         1464    .text               mc_w.l(memcpya.o)
    0x08008eca   0x08008eca   0x0000002c   Code   RO         1744    .text               mc_w.l(uidiv.o)
    0x08008ef6   0x08008ef6   0x0000001e   Code   RO         1746    .text               mc_w.l(llshl.o)
    0x08008f14   0x08008f14   0x00000020   Code   RO         1748    .text               mc_w.l(llushr.o)
    0x08008f34   0x08008f34   0x00000000   Code   RO         1750    .text               mc_w.l(iusefp.o)
    0x08008f34   0x08008f34   0x0000014e   Code   RO         1751    .text               mf_w.l(dadd.o)
    0x08009082   0x08009082   0x000000e4   Code   RO         1753    .text               mf_w.l(dmul.o)
    0x08009166   0x08009166   0x000000de   Code   RO         1755    .text               mf_w.l(ddiv.o)
    0x08009244   0x08009244   0x00000030   Code   RO         1757    .text               mf_w.l(dfixul.o)
    0x08009274   0x08009274   0x00000030   Code   RO         1759    .text               mf_w.l(cdrcmple.o)
    0x080092a4   0x080092a4   0x00000024   Code   RO         1761    .text               mc_w.l(init.o)
    0x080092c8   0x080092c8   0x00000024   Code   RO         1763    .text               mc_w.l(llsshr.o)
    0x080092ec   0x080092ec   0x000000ba   Code   RO         1765    .text               mf_w.l(depilogue.o)
    0x080093a6   0x080093a6   0x00000002   PAD
    0x080093a8   0x080093a8   0x00000020   Code   RO         1513    i.__0printf$1       mc_w.l(printf1.o)
    0x080093c8   0x080093c8   0x0000002c   Code   RO         1706    i.__0vsnprintf      mc_w.l(printfa.o)
    0x080093f4   0x080093f4   0x0000000e   Code   RO         1769    i.__scatterload_copy  mc_w.l(handlers.o)
    0x08009402   0x08009402   0x00000002   Code   RO         1770    i.__scatterload_null  mc_w.l(handlers.o)
    0x08009404   0x08009404   0x0000000e   Code   RO         1771    i.__scatterload_zeroinit  mc_w.l(handlers.o)
    0x08009412   0x08009412   0x00000002   PAD
    0x08009414   0x08009414   0x00000184   Code   RO         1708    i._fp_digits        mc_w.l(printfa.o)
    0x08009598   0x08009598   0x00000154   Code   RO         1520    i._printf_core      mc_w.l(printf1.o)
    0x080096ec   0x080096ec   0x000006dc   Code   RO         1709    i._printf_core      mc_w.l(printfa.o)
    0x08009dc8   0x08009dc8   0x00000024   Code   RO         1710    i._printf_post_padding  mc_w.l(printfa.o)
    0x08009dec   0x08009dec   0x0000002e   Code   RO         1711    i._printf_pre_padding  mc_w.l(printfa.o)
    0x08009e1a   0x08009e1a   0x00000016   Code   RO         1712    i._snputc           mc_w.l(printfa.o)
    0x08009e30   0x08009e30   0x00000030   Data   RO          423    .constdata          led.o
    0x08009e60   0x08009e60   0x00000008   Data   RO          450    .constdata          beep.o
    0x08009e68   0x08009e68   0x00000014   Data   RO          477    .constdata          relay.o
    0x08009e7c   0x08009e7c   0x00000020   Data   RO         1767    Region$$Table       anon$$obj.o


    Execution Region RW_IRAM1 (Exec base: 0x20000000, Load base: 0x08009e9c, Size: 0x00002050, Max: 0x00020000, ABSOLUTE)

    Exec Addr    Load Addr    Size         Type   Attr      Idx    E Section Name        Object

    0x20000000   0x08009e9c   0x00000017   Data   RW           16    .data               app.o
    0x20000017   0x08009eb3   0x00000001   PAD
    0x20000018   0x08009eb4   0x00000014   Data   RW          290    .data               iic.o
    0x2000002c   0x08009ec8   0x00000018   Data   RW          393    .data               sdio.o
    0x20000044   0x08009ee0   0x00000020   Data   RW          424    .data               led.o
    0x20000064   0x08009f00   0x00000004   Data   RW          451    .data               beep.o
    0x20000068   0x08009f04   0x0000000c   Data   RW          478    .data               relay.o
    0x20000074   0x08009f10   0x00000002   Data   RW          505    .data               w25qxx.o
    0x20000076   0x08009f12   0x00000002   PAD
    0x20000078   0x08009f14   0x00000014   Data   RW          649    .data               system_stm32f4xx.o
    0x2000008c   0x08009f28   0x00000020   Data   RW          793    .data               usbd_usr.o
    0x200000ac   0x08009f48   0x00000034   Data   RW          908    .data               usbd_core.o
    0x200000e0   0x08009f7c   0x0000000d   Data   RW          963    .data               usbd_req.o
    0x200000ed   0x08009f89   0x00000010   Data   RW         1236    .data               stm32f4xx.lib(stm32f4xx_rcc.o)
    0x200000fd   0x08009f99   0x00000003   PAD
    0x20000100   0x08009f9c   0x00000004   Data   RW         1743    .data               mc_w.l(stdout.o)
    0x20000104        -       0x0000087c   Zero   RW           14    .bss                app.o
    0x20000980        -       0x000002cc   Zero   RW          392    .bss                sdio.o
    0x20000c4c        -       0x00001000   Zero   RW          504    .bss                w25qxx.o
    0x20001c4c   0x08009fa0   0x00000004   PAD
    0x20001c50        -       0x00000400   Zero   RW            1    STACK               startup_stm32f4xx.o


==============================================================================

Image component sizes


      Code (inc. data)   RO Data    RW Data    ZI Data      Debug   Object Name

       250          0          0          0          0       2476   24cxx.o
       168         22          0         23       2172     320780   app.o
       176         12          8          4          0       1973   beep.o
        88          0          0          0          0       1323   bsp.o
      1114         26          0         20          0       6125   iic.o
       828         30         48         32          0       2995   led.o
       176         12         20         12          0       1998   relay.o
       556          0          0          0          0       2702   rtc.o
      7012        220          0         24        716      26092   sdio.o
       472         18          0          0          0       1838   spi.o
        36          8        392          0       1024        976   startup_stm32f4xx.o
       528         46          0         20          0       2187   system_stm32f4xx.o
       420          8          0          0          0       5389   usart.o
       188         10          0          0          0       2447   usb_bsp.o
      4054         10          0          0          0      13144   usb_core.o
       894          0          0          0          0       4856   usb_dcd.o
      1904         22          0          0          0       5215   usb_dcd_int.o
       760          6          0         52          0       5862   usbd_core.o
       244          0          0          0          0       3002   usbd_ioreq.o
      1728         50          0         13          0       5921   usbd_req.o
       360        246          0         32          0       1960   usbd_usr.o
      1124         26          0          2       4096       4760   w25qxx.o

    ----------------------------------------------------------------------
     23084        772        500        237       8012     424021   Object Totals
         0          0         32          0          0          0   (incl. Generated)
         4          0          0          3          4          0   (incl. Padding)

    ----------------------------------------------------------------------

      Code (inc. data)   RO Data    RW Data    ZI Data      Debug   Library Member Name

         0          0          0          0          0          0   entry.o
         0          0          0          0          0          0   entry10a.o
         0          0          0          0          0          0   entry11a.o
         8          4          0          0          0          0   entry2.o
         4          0          0          0          0          0   entry5.o
         0          0          0          0          0          0   entry7b.o
         0          0          0          0          0          0   entry8b.o
         8          4          0          0          0          0   entry9a.o
        30          0          0          0          0          0   handlers.o
        36          8          0          0          0         68   init.o
         0          0          0          0          0          0   iusefp.o
        30          0          0          0          0         68   llshl.o
        36          0          0          0          0         68   llsshr.o
        32          0          0          0          0         68   llushr.o
        36          0          0          0          0         68   memcpya.o
       372         14          0          0          0        184   printf1.o
      2292         84          0          0          0        516   printfa.o
         0          0          0          4          0          0   stdout.o
        44          0          0          0          0         80   uidiv.o
        98          0          0          0          0         92   uldiv.o
        48          0          0          0          0         68   cdrcmple.o
       334          0          0          0          0        148   dadd.o
       222          0          0          0          0        100   ddiv.o
       186          0          0          0          0        176   depilogue.o
        48          0          0          0          0         68   dfixul.o
       228          0          0          0          0         96   dmul.o
       224         20          0          0          0     274321   misc.o
       936         32          0          0          0       6449   stm32f4xx_dma.o
       284         10          0          0          0       2451   stm32f4xx_exti.o
       604         36          0          0          0       4221   stm32f4xx_gpio.o
       248         14          0          0          0       2704   stm32f4xx_pwr.o
      1416         48          0         16          0      11175   stm32f4xx_rcc.o
      3432         44          0          0          0      30108   stm32f4xx_rtc.o
       476         16          0          0          0      16820   stm32f4xx_sdio.o
      1016         22          0          0          0      15021   stm32f4xx_spi.o
      3234         60          0          0          0      22452   stm32f4xx_tim.o
      1050         26          0          0          0       7924   stm32f4xx_usart.o

    ----------------------------------------------------------------------
     17020        442          0         23          0     395514   Library Totals
         8          0          0          3          0          0   (incl. Padding)

    ----------------------------------------------------------------------

      Code (inc. data)   RO Data    RW Data    ZI Data      Debug   Library Name

      3026        114          0          4          0       1212   mc_w.l
      1066          0          0          0          0        656   mf_w.l
     12920        328          0         16          0     393646   stm32f4xx.lib

    ----------------------------------------------------------------------
     17020        442          0         23          0     395514   Library Totals

    ----------------------------------------------------------------------

==============================================================================


      Code (inc. data)   RO Data    RW Data    ZI Data      Debug   

     40104       1214        500        260       8012     810851   Grand Totals
     40104       1214        500        260       8012     810851   ELF Image Totals
     40104       1214        500        260          0          0   ROM Totals

==============================================================================

    Total RO  Size (Code + RO Data)                40604 (  39.65kB)
    Total RW  Size (RW Data + ZI Data)              8272 (   8.08kB)
    Total ROM Size (Code + RO Data + RW Data)      40864 (  39.91kB)

==============================================================================

